{
  "data": {
    "bytecode": {
      "linkReferences": {},
      "object": "608060405234801561000f575f80fd5b506124a08061001d5f395ff3fe608060405234801561000f575f80fd5b50600436106100b2575f3560e01c80639e1de6561161006f5780639e1de6561461019d5780639f132fb1146101d2578063a94f049514610202578063b823d1051461021e578063cba49c211461024e578063fb63a2ce14610281576100b2565b8063147fe85e146100b65780632450b463146100d25780634f2a2d821461010557806350a81035146101215780635f4c43e614610151578063951f54b61461016d575b5f80fd5b6100d060048036038101906100cb9190611659565b61029d565b005b6100ec60048036038101906100e791906117bd565b6103aa565b6040516100fc9493929190611982565b60405180910390f35b61011f600480360381019061011a9190611ad7565b61065a565b005b61013b60048036038101906101369190611b1e565b61070e565b6040516101489190611ce6565b60405180910390f35b61016b60048036038101906101669190611d06565b610b2f565b005b61018760048036038101906101829190611b1e565b610ba5565b6040516101949190611d7c565b60405180910390f35b6101b760048036038101906101b29190611b1e565b610bd1565b6040516101c996959493929190611d95565b60405180910390f35b6101ec60048036038101906101e79190611b1e565b610f45565b6040516101f99190611d7c565b60405180910390f35b61021c60048036038101906102179190611e48565b610f6b565b005b61023860048036038101906102339190611b1e565b610fb3565b6040516102459190611f6f565b60405180910390f35b61026860048036038101906102639190611f8f565b6110d7565b6040516102789493929190611fc9565b60405180910390f35b61029b60048036038101906102969190612021565b6112a4565b005b6102a5611446565b86815f0181905250858160200181905250848160400181905250838160600181905250828160800181905250818160a0018190525060015f836040516102eb919061215e565b9081526020016040518091039020819055508060038360405161030e919061215e565b90815260200160405180910390205f820151815f01908161032f919061236e565b506020820151816001019081610345919061236e565b50604082015181600201908161035b919061236e565b506060820151816003019081610371919061236e565b506080820151816004019081610387919061236e565b5060a082015181600501908161039d919061236e565b5090505050505050505050565b60018280516020810182018051848252602083016020850120818352809550505050505081815481106103db575f80fd5b905f5260205f2090600602015f9150915050805f015490806001015490806002016040518060400160405290815f82018054610416906121a1565b80601f0160208091040260200160405190810160405280929190818152602001828054610442906121a1565b801561048d5780601f106104645761010080835404028352916020019161048d565b820191905f5260205f20905b81548152906001019060200180831161047057829003601f168201915b50505050508152602001600182016040518060400160405290815f820180546104b5906121a1565b80601f01602080910402602001604051908101604052809291908181526020018280546104e1906121a1565b801561052c5780601f106105035761010080835404028352916020019161052c565b820191905f5260205f20905b81548152906001019060200180831161050f57829003601f168201915b50505050508152602001600182018054610545906121a1565b80601f0160208091040260200160405190810160405280929190818152602001828054610571906121a1565b80156105bc5780601f10610593576101008083540402835291602001916105bc565b820191905f5260205f20905b81548152906001019060200180831161059f57829003601f168201915b50505050508152505081525050908060050180546105d9906121a1565b80601f0160208091040260200160405190810160405280929190818152602001828054610605906121a1565b80156106505780601f1061062757610100808354040283529160200191610650565b820191905f5260205f20905b81548152906001019060200180831161063357829003601f168201915b5050505050905084565b61066261147c565b815f0151815f018190525081602001518160200181815250508160400151816040018190525081606001518160600181905250600682908060018154018082558091505060019003905f5260205f2090600402015f909190919091505f820151815f0190816106d1919061236e565b506020820151816001015560408201518160020190816106f1919061236e565b506060820151816003019081610707919061236e565b5050505050565b60606001600583604051610722919061215e565b90815260200160405180910390205403610ace575f600183604051610747919061215e565b90815260200160405180910390208054905067ffffffffffffffff81111561077257610771611535565b5b6040519080825280602002602001820160405280156107ab57816020015b6107986114a6565b8152602001906001900390816107905790505b5090505f5b6001846040516107c0919061215e565b908152602001604051809103902080549050811015610ac4576001846040516107e9919061215e565b908152602001604051809103902081815481106108095761080861243d565b5b905f5260205f2090600602016040518060800160405290815f820154815260200160018201548152602001600282016040518060400160405290815f82018054610852906121a1565b80601f016020809104026020016040519081016040528092919081815260200182805461087e906121a1565b80156108c95780601f106108a0576101008083540402835291602001916108c9565b820191905f5260205f20905b8154815290600101906020018083116108ac57829003601f168201915b50505050508152602001600182016040518060400160405290815f820180546108f1906121a1565b80601f016020809104026020016040519081016040528092919081815260200182805461091d906121a1565b80156109685780601f1061093f57610100808354040283529160200191610968565b820191905f5260205f20905b81548152906001019060200180831161094b57829003601f168201915b50505050508152602001600182018054610981906121a1565b80601f01602080910402602001604051908101604052809291908181526020018280546109ad906121a1565b80156109f85780601f106109cf576101008083540402835291602001916109f8565b820191905f5260205f20905b8154815290600101906020018083116109db57829003601f168201915b505050505081525050815250508152602001600582018054610a19906121a1565b80601f0160208091040260200160405190810160405280929190818152602001828054610a45906121a1565b8015610a905780601f10610a6757610100808354040283529160200191610a90565b820191905f5260205f20905b815481529060010190602001808311610a7357829003601f168201915b505050505081525050828281518110610aac57610aab61243d565b5b602002602001018190525080806001019150506107b0565b5080915050610b2a565b5f8067ffffffffffffffff811115610ae957610ae8611535565b5b604051908082528060200260200182016040528015610b2257816020015b610b0f6114a6565b815260200190600190039081610b075790505b509050809150505b919050565b600281604051610b3f919061215e565b908152602001604051809103902082908060018154018082558091505060019003905f5260205f20015f909190919091509081610b7c919061236e565b506001600482604051610b8f919061215e565b9081526020016040518091039020819055505050565b5f818051602081018201805184825260208301602085012081835280955050505050505f915090505481565b6003818051602081018201805184825260208301602085012081835280955050505050505f91509050805f018054610c08906121a1565b80601f0160208091040260200160405190810160405280929190818152602001828054610c34906121a1565b8015610c7f5780601f10610c5657610100808354040283529160200191610c7f565b820191905f5260205f20905b815481529060010190602001808311610c6257829003601f168201915b505050505090806001018054610c94906121a1565b80601f0160208091040260200160405190810160405280929190818152602001828054610cc0906121a1565b8015610d0b5780601f10610ce257610100808354040283529160200191610d0b565b820191905f5260205f20905b815481529060010190602001808311610cee57829003601f168201915b505050505090806002018054610d20906121a1565b80601f0160208091040260200160405190810160405280929190818152602001828054610d4c906121a1565b8015610d975780601f10610d6e57610100808354040283529160200191610d97565b820191905f5260205f20905b815481529060010190602001808311610d7a57829003601f168201915b505050505090806003018054610dac906121a1565b80601f0160208091040260200160405190810160405280929190818152602001828054610dd8906121a1565b8015610e235780601f10610dfa57610100808354040283529160200191610e23565b820191905f5260205f20905b815481529060010190602001808311610e0657829003601f168201915b505050505090806004018054610e38906121a1565b80601f0160208091040260200160405190810160405280929190818152602001828054610e64906121a1565b8015610eaf5780601f10610e8657610100808354040283529160200191610eaf565b820191905f5260205f20905b815481529060010190602001808311610e9257829003601f168201915b505050505090806005018054610ec4906121a1565b80601f0160208091040260200160405190810160405280929190818152602001828054610ef0906121a1565b8015610f3b5780601f10610f1257610100808354040283529160200191610f3b565b820191905f5260205f20905b815481529060010190602001808311610f1e57829003601f168201915b5050505050905086565b5f8082604051610f55919061215e565b9081526020016040518091039020549050919050565b80600184604051610f7c919061215e565b90815260200160405180910390208381548110610f9c57610f9b61243d565b5b905f5260205f2090600602015f0181905550505050565b60606001600483604051610fc7919061215e565b908152602001604051809103902054036110cb57600282604051610feb919061215e565b9081526020016040518091039020805480602002602001604051908101604052809291908181526020015f905b828210156110c0578382905f5260205f20018054611035906121a1565b80601f0160208091040260200160405190810160405280929190818152602001828054611061906121a1565b80156110ac5780601f10611083576101008083540402835291602001916110ac565b820191905f5260205f20905b81548152906001019060200180831161108f57829003601f168201915b505050505081526020019060010190611018565b5050505090506110d2565b6060809150505b919050565b600681815481106110e6575f80fd5b905f5260205f2090600402015f91509050805f018054611105906121a1565b80601f0160208091040260200160405190810160405280929190818152602001828054611131906121a1565b801561117c5780601f106111535761010080835404028352916020019161117c565b820191905f5260205f20905b81548152906001019060200180831161115f57829003601f168201915b505050505090806001015490806002018054611197906121a1565b80601f01602080910402602001604051908101604052809291908181526020018280546111c3906121a1565b801561120e5780601f106111e55761010080835404028352916020019161120e565b820191905f5260205f20905b8154815290600101906020018083116111f157829003601f168201915b505050505090806003018054611223906121a1565b80601f016020809104026020016040519081016040528092919081815260200182805461124f906121a1565b801561129a5780601f106112715761010080835404028352916020019161129a565b820191905f5260205f20905b81548152906001019060200180831161127d57829003601f168201915b5050505050905084565b6112ac6114a6565b6001815f0181815250506112be6114d2565b85815f01819052506112ce6114f2565b84815f01819052508581602001819052508082602001819052508183604001819052505f8360200181815250505f60058960405161130c919061215e565b9081526020016040518091039020541461134c57600188604051611330919061215e565b9081526020016040518091039020805490508360200181815250505b838360600181905250600188604051611365919061215e565b908152602001604051809103902083908060018154018082558091505060019003905f5260205f2090600602015f909190919091505f820151815f0155602082015181600101556040820151816002015f820151815f0190816113c8919061236e565b506020820151816001015f820151815f0190816113e5919061236e565b5060208201518160010190816113fb919061236e565b50505050506060820151816005019081611415919061236e565b505050600160058960405161142a919061215e565b9081526020016040518091039020819055505050505050505050565b6040518060c001604052806060815260200160608152602001606081526020016060815260200160608152602001606081525090565b6040518060800160405280606081526020015f801916815260200160608152602001606081525090565b60405180608001604052805f81526020015f81526020016114c56114d2565b8152602001606081525090565b6040518060400160405280606081526020016114ec6114f2565b81525090565b604051806040016040528060608152602001606081525090565b5f604051905090565b5f80fd5b5f80fd5b5f80fd5b5f80fd5b5f601f19601f8301169050919050565b7f4e487b71000000000000000000000000000000000000000000000000000000005f52604160045260245ffd5b61156b82611525565b810181811067ffffffffffffffff8211171561158a57611589611535565b5b80604052505050565b5f61159c61150c565b90506115a88282611562565b919050565b5f67ffffffffffffffff8211156115c7576115c6611535565b5b6115d082611525565b9050602081019050919050565b828183375f83830152505050565b5f6115fd6115f8846115ad565b611593565b90508281526020810184848401111561161957611618611521565b5b6116248482856115dd565b509392505050565b5f82601f8301126116405761163f61151d565b5b81356116508482602086016115eb565b91505092915050565b5f805f805f8060c0878903121561167357611672611515565b5b5f87013567ffffffffffffffff8111156116905761168f611519565b5b61169c89828a0161162c565b965050602087013567ffffffffffffffff8111156116bd576116bc611519565b5b6116c989828a0161162c565b955050604087013567ffffffffffffffff8111156116ea576116e9611519565b5b6116f689828a0161162c565b945050606087013567ffffffffffffffff81111561171757611716611519565b5b61172389828a0161162c565b935050608087013567ffffffffffffffff81111561174457611743611519565b5b61175089828a0161162c565b92505060a087013567ffffffffffffffff81111561177157611770611519565b5b61177d89828a0161162c565b9150509295509295509295565b5f819050919050565b61179c8161178a565b81146117a6575f80fd5b50565b5f813590506117b781611793565b92915050565b5f80604083850312156117d3576117d2611515565b5b5f83013567ffffffffffffffff8111156117f0576117ef611519565b5b6117fc8582860161162c565b925050602061180d858286016117a9565b9150509250929050565b5f819050919050565b61182981611817565b82525050565b6118388161178a565b82525050565b5f81519050919050565b5f82825260208201905092915050565b5f5b8381101561187557808201518184015260208101905061185a565b5f8484015250505050565b5f61188a8261183e565b6118948185611848565b93506118a4818560208601611858565b6118ad81611525565b840191505092915050565b5f604083015f8301518482035f8601526118d28282611880565b915050602083015184820360208601526118ec8282611880565b9150508091505092915050565b5f604083015f8301518482035f8601526119138282611880565b9150506020830151848203602086015261192d82826118b8565b9150508091505092915050565b5f82825260208201905092915050565b5f6119548261183e565b61195e818561193a565b935061196e818560208601611858565b61197781611525565b840191505092915050565b5f6080820190506119955f830187611820565b6119a2602083018661182f565b81810360408301526119b481856118f9565b905081810360608301526119c8818461194a565b905095945050505050565b5f80fd5b5f80fd5b5f819050919050565b6119ed816119db565b81146119f7575f80fd5b50565b5f81359050611a08816119e4565b92915050565b5f60808284031215611a2357611a226119d3565b5b611a2d6080611593565b90505f82013567ffffffffffffffff811115611a4c57611a4b6119d7565b5b611a588482850161162c565b5f830152506020611a6b848285016119fa565b602083015250604082013567ffffffffffffffff811115611a8f57611a8e6119d7565b5b611a9b8482850161162c565b604083015250606082013567ffffffffffffffff811115611abf57611abe6119d7565b5b611acb8482850161162c565b60608301525092915050565b5f60208284031215611aec57611aeb611515565b5b5f82013567ffffffffffffffff811115611b0957611b08611519565b5b611b1584828501611a0e565b91505092915050565b5f60208284031215611b3357611b32611515565b5b5f82013567ffffffffffffffff811115611b5057611b4f611519565b5b611b5c8482850161162c565b91505092915050565b5f81519050919050565b5f82825260208201905092915050565b5f819050602082019050919050565b611b9781611817565b82525050565b611ba68161178a565b82525050565b5f604083015f8301518482035f860152611bc68282611880565b91505060208301518482036020860152611be082826118b8565b9150508091505092915050565b5f608083015f830151611c025f860182611b8e565b506020830151611c156020860182611b9d565b5060408301518482036040860152611c2d8282611bac565b91505060608301518482036060860152611c478282611880565b9150508091505092915050565b5f611c5f8383611bed565b905092915050565b5f602082019050919050565b5f611c7d82611b65565b611c878185611b6f565b935083602082028501611c9985611b7f565b805f5b85811015611cd45784840389528151611cb58582611c54565b9450611cc083611c67565b925060208a01995050600181019050611c9c565b50829750879550505050505092915050565b5f6020820190508181035f830152611cfe8184611c73565b905092915050565b5f8060408385031215611d1c57611d1b611515565b5b5f83013567ffffffffffffffff811115611d3957611d38611519565b5b611d458582860161162c565b925050602083013567ffffffffffffffff811115611d6657611d65611519565b5b611d728582860161162c565b9150509250929050565b5f602082019050611d8f5f830184611820565b92915050565b5f60c0820190508181035f830152611dad818961194a565b90508181036020830152611dc1818861194a565b90508181036040830152611dd5818761194a565b90508181036060830152611de9818661194a565b90508181036080830152611dfd818561194a565b905081810360a0830152611e11818461194a565b9050979650505050505050565b611e2781611817565b8114611e31575f80fd5b50565b5f81359050611e4281611e1e565b92915050565b5f805f60608486031215611e5f57611e5e611515565b5b5f84013567ffffffffffffffff811115611e7c57611e7b611519565b5b611e888682870161162c565b9350506020611e99868287016117a9565b9250506040611eaa86828701611e34565b9150509250925092565b5f81519050919050565b5f82825260208201905092915050565b5f819050602082019050919050565b5f611ee88383611880565b905092915050565b5f602082019050919050565b5f611f0682611eb4565b611f108185611ebe565b935083602082028501611f2285611ece565b805f5b85811015611f5d5784840389528151611f3e8582611edd565b9450611f4983611ef0565b925060208a01995050600181019050611f25565b50829750879550505050505092915050565b5f6020820190508181035f830152611f878184611efc565b905092915050565b5f60208284031215611fa457611fa3611515565b5b5f611fb1848285016117a9565b91505092915050565b611fc3816119db565b82525050565b5f6080820190508181035f830152611fe1818761194a565b9050611ff06020830186611fba565b8181036040830152612002818561194a565b90508181036060830152612016818461194a565b905095945050505050565b5f805f805f60a0868803121561203a57612039611515565b5b5f86013567ffffffffffffffff81111561205757612056611519565b5b6120638882890161162c565b955050602086013567ffffffffffffffff81111561208457612083611519565b5b6120908882890161162c565b945050604086013567ffffffffffffffff8111156120b1576120b0611519565b5b6120bd8882890161162c565b935050606086013567ffffffffffffffff8111156120de576120dd611519565b5b6120ea8882890161162c565b925050608086013567ffffffffffffffff81111561210b5761210a611519565b5b6121178882890161162c565b9150509295509295909350565b5f81905092915050565b5f6121388261183e565b6121428185612124565b9350612152818560208601611858565b80840191505092915050565b5f612169828461212e565b915081905092915050565b7f4e487b71000000000000000000000000000000000000000000000000000000005f52602260045260245ffd5b5f60028204905060018216806121b857607f821691505b6020821081036121cb576121ca612174565b5b50919050565b5f819050815f5260205f209050919050565b5f6020601f8301049050919050565b5f82821b905092915050565b5f6008830261222d7fffffffffffffffffffffffffffffffffffffffffffffffffffffffffffffffff826121f2565b61223786836121f2565b95508019841693508086168417925050509392505050565b5f819050919050565b5f61227261226d6122688461178a565b61224f565b61178a565b9050919050565b5f819050919050565b61228b83612258565b61229f61229782612279565b8484546121fe565b825550505050565b5f90565b6122b36122a7565b6122be818484612282565b505050565b5b818110156122e1576122d65f826122ab565b6001810190506122c4565b5050565b601f821115612326576122f7816121d1565b612300846121e3565b8101602085101561230f578190505b61232361231b856121e3565b8301826122c3565b50505b505050565b5f82821c905092915050565b5f6123465f198460080261232b565b1980831691505092915050565b5f61235e8383612337565b9150826002028217905092915050565b6123778261183e565b67ffffffffffffffff8111156123905761238f611535565b5b61239a82546121a1565b6123a58282856122e5565b5f60209050601f8311600181146123d6575f84156123c4578287015190505b6123ce8582612353565b865550612435565b601f1984166123e4866121d1565b5f5b8281101561240b578489015182556001820191506020850194506020810190506123e6565b868310156124285784890151612424601f891682612337565b8355505b6001600288020188555050505b505050505050565b7f4e487b71000000000000000000000000000000000000000000000000000000005f52603260045260245ffdfea2646970667358221220349c20e88b0453e90a349ad3a874aef1877ee858d0a8bc8d1ee42fcbf1fc180764736f6c63430008180033",
      "opcodes": "PUSH1 0x80 PUSH1 0x40 MSTORE CALLVALUE DUP1 ISZERO PUSH2 0xF JUMPI PUSH0 DUP1 REVERT JUMPDEST POP PUSH2 0x24A0 DUP1 PUSH2 0x1D PUSH0 CODECOPY PUSH0 RETURN INVALID PUSH1 0x80 PUSH1 0x40 MSTORE CALLVALUE DUP1 ISZERO PUSH2 0xF JUMPI PUSH0 DUP1 REVERT JUMPDEST POP PUSH1 0x4 CALLDATASIZE LT PUSH2 0xB2 JUMPI PUSH0 CALLDATALOAD PUSH1 0xE0 SHR DUP1 PUSH4 0x9E1DE656 GT PUSH2 0x6F JUMPI DUP1 PUSH4 0x9E1DE656 EQ PUSH2 0x19D JUMPI DUP1 PUSH4 0x9F132FB1 EQ PUSH2 0x1D2 JUMPI DUP1 PUSH4 0xA94F0495 EQ PUSH2 0x202 JUMPI DUP1 PUSH4 0xB823D105 EQ PUSH2 0x21E JUMPI DUP1 PUSH4 0xCBA49C21 EQ PUSH2 0x24E JUMPI DUP1 PUSH4 0xFB63A2CE EQ PUSH2 0x281 JUMPI PUSH2 0xB2 JUMP JUMPDEST DUP1 PUSH4 0x147FE85E EQ PUSH2 0xB6 JUMPI DUP1 PUSH4 0x2450B463 EQ PUSH2 0xD2 JUMPI DUP1 PUSH4 0x4F2A2D82 EQ PUSH2 0x105 JUMPI DUP1 PUSH4 0x50A81035 EQ PUSH2 0x121 JUMPI DUP1 PUSH4 0x5F4C43E6 EQ PUSH2 0x151 JUMPI DUP1 PUSH4 0x951F54B6 EQ PUSH2 0x16D JUMPI JUMPDEST PUSH0 DUP1 REVERT JUMPDEST PUSH2 0xD0 PUSH1 0x4 DUP1 CALLDATASIZE SUB DUP2 ADD SWAP1 PUSH2 0xCB SWAP2 SWAP1 PUSH2 0x1659 JUMP JUMPDEST PUSH2 0x29D JUMP JUMPDEST STOP JUMPDEST PUSH2 0xEC PUSH1 0x4 DUP1 CALLDATASIZE SUB DUP2 ADD SWAP1 PUSH2 0xE7 SWAP2 SWAP1 PUSH2 0x17BD JUMP JUMPDEST PUSH2 0x3AA JUMP JUMPDEST PUSH1 0x40 MLOAD PUSH2 0xFC SWAP5 SWAP4 SWAP3 SWAP2 SWAP1 PUSH2 0x1982 JUMP JUMPDEST PUSH1 0x40 MLOAD DUP1 SWAP2 SUB SWAP1 RETURN JUMPDEST PUSH2 0x11F PUSH1 0x4 DUP1 CALLDATASIZE SUB DUP2 ADD SWAP1 PUSH2 0x11A SWAP2 SWAP1 PUSH2 0x1AD7 JUMP JUMPDEST PUSH2 0x65A JUMP JUMPDEST STOP JUMPDEST PUSH2 0x13B PUSH1 0x4 DUP1 CALLDATASIZE SUB DUP2 ADD SWAP1 PUSH2 0x136 SWAP2 SWAP1 PUSH2 0x1B1E JUMP JUMPDEST PUSH2 0x70E JUMP JUMPDEST PUSH1 0x40 MLOAD PUSH2 0x148 SWAP2 SWAP1 PUSH2 0x1CE6 JUMP JUMPDEST PUSH1 0x40 MLOAD DUP1 SWAP2 SUB SWAP1 RETURN JUMPDEST PUSH2 0x16B PUSH1 0x4 DUP1 CALLDATASIZE SUB DUP2 ADD SWAP1 PUSH2 0x166 SWAP2 SWAP1 PUSH2 0x1D06 JUMP JUMPDEST PUSH2 0xB2F JUMP JUMPDEST STOP JUMPDEST PUSH2 0x187 PUSH1 0x4 DUP1 CALLDATASIZE SUB DUP2 ADD SWAP1 PUSH2 0x182 SWAP2 SWAP1 PUSH2 0x1B1E JUMP JUMPDEST PUSH2 0xBA5 JUMP JUMPDEST PUSH1 0x40 MLOAD PUSH2 0x194 SWAP2 SWAP1 PUSH2 0x1D7C JUMP JUMPDEST PUSH1 0x40 MLOAD DUP1 SWAP2 SUB SWAP1 RETURN JUMPDEST PUSH2 0x1B7 PUSH1 0x4 DUP1 CALLDATASIZE SUB DUP2 ADD SWAP1 PUSH2 0x1B2 SWAP2 SWAP1 PUSH2 0x1B1E JUMP JUMPDEST PUSH2 0xBD1 JUMP JUMPDEST PUSH1 0x40 MLOAD PUSH2 0x1C9 SWAP7 SWAP6 SWAP5 SWAP4 SWAP3 SWAP2 SWAP1 PUSH2 0x1D95 JUMP JUMPDEST PUSH1 0x40 MLOAD DUP1 SWAP2 SUB SWAP1 RETURN JUMPDEST PUSH2 0x1EC PUSH1 0x4 DUP1 CALLDATASIZE SUB DUP2 ADD SWAP1 PUSH2 0x1E7 SWAP2 SWAP1 PUSH2 0x1B1E JUMP JUMPDEST PUSH2 0xF45 JUMP JUMPDEST PUSH1 0x40 MLOAD PUSH2 0x1F9 SWAP2 SWAP1 PUSH2 0x1D7C JUMP JUMPDEST PUSH1 0x40 MLOAD DUP1 SWAP2 SUB SWAP1 RETURN JUMPDEST PUSH2 0x21C PUSH1 0x4 DUP1 CALLDATASIZE SUB DUP2 ADD SWAP1 PUSH2 0x217 SWAP2 SWAP1 PUSH2 0x1E48 JUMP JUMPDEST PUSH2 0xF6B JUMP JUMPDEST STOP JUMPDEST PUSH2 0x238 PUSH1 0x4 DUP1 CALLDATASIZE SUB DUP2 ADD SWAP1 PUSH2 0x233 SWAP2 SWAP1 PUSH2 0x1B1E JUMP JUMPDEST PUSH2 0xFB3 JUMP JUMPDEST PUSH1 0x40 MLOAD PUSH2 0x245 SWAP2 SWAP1 PUSH2 0x1F6F JUMP JUMPDEST PUSH1 0x40 MLOAD DUP1 SWAP2 SUB SWAP1 RETURN JUMPDEST PUSH2 0x268 PUSH1 0x4 DUP1 CALLDATASIZE SUB DUP2 ADD SWAP1 PUSH2 0x263 SWAP2 SWAP1 PUSH2 0x1F8F JUMP JUMPDEST PUSH2 0x10D7 JUMP JUMPDEST PUSH1 0x40 MLOAD PUSH2 0x278 SWAP5 SWAP4 SWAP3 SWAP2 SWAP1 PUSH2 0x1FC9 JUMP JUMPDEST PUSH1 0x40 MLOAD DUP1 SWAP2 SUB SWAP1 RETURN JUMPDEST PUSH2 0x29B PUSH1 0x4 DUP1 CALLDATASIZE SUB DUP2 ADD SWAP1 PUSH2 0x296 SWAP2 SWAP1 PUSH2 0x2021 JUMP JUMPDEST PUSH2 0x12A4 JUMP JUMPDEST STOP JUMPDEST PUSH2 0x2A5 PUSH2 0x1446 JUMP JUMPDEST DUP7 DUP2 PUSH0 ADD DUP2 SWAP1 MSTORE POP DUP6 DUP2 PUSH1 0x20 ADD DUP2 SWAP1 MSTORE POP DUP5 DUP2 PUSH1 0x40 ADD DUP2 SWAP1 MSTORE POP DUP4 DUP2 PUSH1 0x60 ADD DUP2 SWAP1 MSTORE POP DUP3 DUP2 PUSH1 0x80 ADD DUP2 SWAP1 MSTORE POP DUP2 DUP2 PUSH1 0xA0 ADD DUP2 SWAP1 MSTORE POP PUSH1 0x1 PUSH0 DUP4 PUSH1 0x40 MLOAD PUSH2 0x2EB SWAP2 SWAP1 PUSH2 0x215E JUMP JUMPDEST SWAP1 DUP2 MSTORE PUSH1 0x20 ADD PUSH1 0x40 MLOAD DUP1 SWAP2 SUB SWAP1 KECCAK256 DUP2 SWAP1 SSTORE POP DUP1 PUSH1 0x3 DUP4 PUSH1 0x40 MLOAD PUSH2 0x30E SWAP2 SWAP1 PUSH2 0x215E JUMP JUMPDEST SWAP1 DUP2 MSTORE PUSH1 0x20 ADD PUSH1 0x40 MLOAD DUP1 SWAP2 SUB SWAP1 KECCAK256 PUSH0 DUP3 ADD MLOAD DUP2 PUSH0 ADD SWAP1 DUP2 PUSH2 0x32F SWAP2 SWAP1 PUSH2 0x236E JUMP JUMPDEST POP PUSH1 0x20 DUP3 ADD MLOAD DUP2 PUSH1 0x1 ADD SWAP1 DUP2 PUSH2 0x345 SWAP2 SWAP1 PUSH2 0x236E JUMP JUMPDEST POP PUSH1 0x40 DUP3 ADD MLOAD DUP2 PUSH1 0x2 ADD SWAP1 DUP2 PUSH2 0x35B SWAP2 SWAP1 PUSH2 0x236E JUMP JUMPDEST POP PUSH1 0x60 DUP3 ADD MLOAD DUP2 PUSH1 0x3 ADD SWAP1 DUP2 PUSH2 0x371 SWAP2 SWAP1 PUSH2 0x236E JUMP JUMPDEST POP PUSH1 0x80 DUP3 ADD MLOAD DUP2 PUSH1 0x4 ADD SWAP1 DUP2 PUSH2 0x387 SWAP2 SWAP1 PUSH2 0x236E JUMP JUMPDEST POP PUSH1 0xA0 DUP3 ADD MLOAD DUP2 PUSH1 0x5 ADD SWAP1 DUP2 PUSH2 0x39D SWAP2 SWAP1 PUSH2 0x236E JUMP JUMPDEST POP SWAP1 POP POP POP POP POP POP POP POP POP JUMP JUMPDEST PUSH1 0x1 DUP3 DUP1 MLOAD PUSH1 0x20 DUP2 ADD DUP3 ADD DUP1 MLOAD DUP5 DUP3 MSTORE PUSH1 0x20 DUP4 ADD PUSH1 0x20 DUP6 ADD KECCAK256 DUP2 DUP4 MSTORE DUP1 SWAP6 POP POP POP POP POP POP DUP2 DUP2 SLOAD DUP2 LT PUSH2 0x3DB JUMPI PUSH0 DUP1 REVERT JUMPDEST SWAP1 PUSH0 MSTORE PUSH1 0x20 PUSH0 KECCAK256 SWAP1 PUSH1 0x6 MUL ADD PUSH0 SWAP2 POP SWAP2 POP POP DUP1 PUSH0 ADD SLOAD SWAP1 DUP1 PUSH1 0x1 ADD SLOAD SWAP1 DUP1 PUSH1 0x2 ADD PUSH1 0x40 MLOAD DUP1 PUSH1 0x40 ADD PUSH1 0x40 MSTORE SWAP1 DUP2 PUSH0 DUP3 ADD DUP1 SLOAD PUSH2 0x416 SWAP1 PUSH2 0x21A1 JUMP JUMPDEST DUP1 PUSH1 0x1F ADD PUSH1 0x20 DUP1 SWAP2 DIV MUL PUSH1 0x20 ADD PUSH1 0x40 MLOAD SWAP1 DUP2 ADD PUSH1 0x40 MSTORE DUP1 SWAP3 SWAP2 SWAP1 DUP2 DUP2 MSTORE PUSH1 0x20 ADD DUP3 DUP1 SLOAD PUSH2 0x442 SWAP1 PUSH2 0x21A1 JUMP JUMPDEST DUP1 ISZERO PUSH2 0x48D JUMPI DUP1 PUSH1 0x1F LT PUSH2 0x464 JUMPI PUSH2 0x100 DUP1 DUP4 SLOAD DIV MUL DUP4 MSTORE SWAP2 PUSH1 0x20 ADD SWAP2 PUSH2 0x48D JUMP JUMPDEST DUP3 ADD SWAP2 SWAP1 PUSH0 MSTORE PUSH1 0x20 PUSH0 KECCAK256 SWAP1 JUMPDEST DUP2 SLOAD DUP2 MSTORE SWAP1 PUSH1 0x1 ADD SWAP1 PUSH1 0x20 ADD DUP1 DUP4 GT PUSH2 0x470 JUMPI DUP3 SWAP1 SUB PUSH1 0x1F AND DUP3 ADD SWAP2 JUMPDEST POP POP POP POP POP DUP2 MSTORE PUSH1 0x20 ADD PUSH1 0x1 DUP3 ADD PUSH1 0x40 MLOAD DUP1 PUSH1 0x40 ADD PUSH1 0x40 MSTORE SWAP1 DUP2 PUSH0 DUP3 ADD DUP1 SLOAD PUSH2 0x4B5 SWAP1 PUSH2 0x21A1 JUMP JUMPDEST DUP1 PUSH1 0x1F ADD PUSH1 0x20 DUP1 SWAP2 DIV MUL PUSH1 0x20 ADD PUSH1 0x40 MLOAD SWAP1 DUP2 ADD PUSH1 0x40 MSTORE DUP1 SWAP3 SWAP2 SWAP1 DUP2 DUP2 MSTORE PUSH1 0x20 ADD DUP3 DUP1 SLOAD PUSH2 0x4E1 SWAP1 PUSH2 0x21A1 JUMP JUMPDEST DUP1 ISZERO PUSH2 0x52C JUMPI DUP1 PUSH1 0x1F LT PUSH2 0x503 JUMPI PUSH2 0x100 DUP1 DUP4 SLOAD DIV MUL DUP4 MSTORE SWAP2 PUSH1 0x20 ADD SWAP2 PUSH2 0x52C JUMP JUMPDEST DUP3 ADD SWAP2 SWAP1 PUSH0 MSTORE PUSH1 0x20 PUSH0 KECCAK256 SWAP1 JUMPDEST DUP2 SLOAD DUP2 MSTORE SWAP1 PUSH1 0x1 ADD SWAP1 PUSH1 0x20 ADD DUP1 DUP4 GT PUSH2 0x50F JUMPI DUP3 SWAP1 SUB PUSH1 0x1F AND DUP3 ADD SWAP2 JUMPDEST POP POP POP POP POP DUP2 MSTORE PUSH1 0x20 ADD PUSH1 0x1 DUP3 ADD DUP1 SLOAD PUSH2 0x545 SWAP1 PUSH2 0x21A1 JUMP JUMPDEST DUP1 PUSH1 0x1F ADD PUSH1 0x20 DUP1 SWAP2 DIV MUL PUSH1 0x20 ADD PUSH1 0x40 MLOAD SWAP1 DUP2 ADD PUSH1 0x40 MSTORE DUP1 SWAP3 SWAP2 SWAP1 DUP2 DUP2 MSTORE PUSH1 0x20 ADD DUP3 DUP1 SLOAD PUSH2 0x571 SWAP1 PUSH2 0x21A1 JUMP JUMPDEST DUP1 ISZERO PUSH2 0x5BC JUMPI DUP1 PUSH1 0x1F LT PUSH2 0x593 JUMPI PUSH2 0x100 DUP1 DUP4 SLOAD DIV MUL DUP4 MSTORE SWAP2 PUSH1 0x20 ADD SWAP2 PUSH2 0x5BC JUMP JUMPDEST DUP3 ADD SWAP2 SWAP1 PUSH0 MSTORE PUSH1 0x20 PUSH0 KECCAK256 SWAP1 JUMPDEST DUP2 SLOAD DUP2 MSTORE SWAP1 PUSH1 0x1 ADD SWAP1 PUSH1 0x20 ADD DUP1 DUP4 GT PUSH2 0x59F JUMPI DUP3 SWAP1 SUB PUSH1 0x1F AND DUP3 ADD SWAP2 JUMPDEST POP POP POP POP POP DUP2 MSTORE POP POP DUP2 MSTORE POP POP SWAP1 DUP1 PUSH1 0x5 ADD DUP1 SLOAD PUSH2 0x5D9 SWAP1 PUSH2 0x21A1 JUMP JUMPDEST DUP1 PUSH1 0x1F ADD PUSH1 0x20 DUP1 SWAP2 DIV MUL PUSH1 0x20 ADD PUSH1 0x40 MLOAD SWAP1 DUP2 ADD PUSH1 0x40 MSTORE DUP1 SWAP3 SWAP2 SWAP1 DUP2 DUP2 MSTORE PUSH1 0x20 ADD DUP3 DUP1 SLOAD PUSH2 0x605 SWAP1 PUSH2 0x21A1 JUMP JUMPDEST DUP1 ISZERO PUSH2 0x650 JUMPI DUP1 PUSH1 0x1F LT PUSH2 0x627 JUMPI PUSH2 0x100 DUP1 DUP4 SLOAD DIV MUL DUP4 MSTORE SWAP2 PUSH1 0x20 ADD SWAP2 PUSH2 0x650 JUMP JUMPDEST DUP3 ADD SWAP2 SWAP1 PUSH0 MSTORE PUSH1 0x20 PUSH0 KECCAK256 SWAP1 JUMPDEST DUP2 SLOAD DUP2 MSTORE SWAP1 PUSH1 0x1 ADD SWAP1 PUSH1 0x20 ADD DUP1 DUP4 GT PUSH2 0x633 JUMPI DUP3 SWAP1 SUB PUSH1 0x1F AND DUP3 ADD SWAP2 JUMPDEST POP POP POP POP POP SWAP1 POP DUP5 JUMP JUMPDEST PUSH2 0x662 PUSH2 0x147C JUMP JUMPDEST DUP2 PUSH0 ADD MLOAD DUP2 PUSH0 ADD DUP2 SWAP1 MSTORE POP DUP2 PUSH1 0x20 ADD MLOAD DUP2 PUSH1 0x20 ADD DUP2 DUP2 MSTORE POP POP DUP2 PUSH1 0x40 ADD MLOAD DUP2 PUSH1 0x40 ADD DUP2 SWAP1 MSTORE POP DUP2 PUSH1 0x60 ADD MLOAD DUP2 PUSH1 0x60 ADD DUP2 SWAP1 MSTORE POP PUSH1 0x6 DUP3 SWAP1 DUP1 PUSH1 0x1 DUP2 SLOAD ADD DUP1 DUP3 SSTORE DUP1 SWAP2 POP POP PUSH1 0x1 SWAP1 SUB SWAP1 PUSH0 MSTORE PUSH1 0x20 PUSH0 KECCAK256 SWAP1 PUSH1 0x4 MUL ADD PUSH0 SWAP1 SWAP2 SWAP1 SWAP2 SWAP1 SWAP2 POP PUSH0 DUP3 ADD MLOAD DUP2 PUSH0 ADD SWAP1 DUP2 PUSH2 0x6D1 SWAP2 SWAP1 PUSH2 0x236E JUMP JUMPDEST POP PUSH1 0x20 DUP3 ADD MLOAD DUP2 PUSH1 0x1 ADD SSTORE PUSH1 0x40 DUP3 ADD MLOAD DUP2 PUSH1 0x2 ADD SWAP1 DUP2 PUSH2 0x6F1 SWAP2 SWAP1 PUSH2 0x236E JUMP JUMPDEST POP PUSH1 0x60 DUP3 ADD MLOAD DUP2 PUSH1 0x3 ADD SWAP1 DUP2 PUSH2 0x707 SWAP2 SWAP1 PUSH2 0x236E JUMP JUMPDEST POP POP POP POP POP JUMP JUMPDEST PUSH1 0x60 PUSH1 0x1 PUSH1 0x5 DUP4 PUSH1 0x40 MLOAD PUSH2 0x722 SWAP2 SWAP1 PUSH2 0x215E JUMP JUMPDEST SWAP1 DUP2 MSTORE PUSH1 0x20 ADD PUSH1 0x40 MLOAD DUP1 SWAP2 SUB SWAP1 KECCAK256 SLOAD SUB PUSH2 0xACE JUMPI PUSH0 PUSH1 0x1 DUP4 PUSH1 0x40 MLOAD PUSH2 0x747 SWAP2 SWAP1 PUSH2 0x215E JUMP JUMPDEST SWAP1 DUP2 MSTORE PUSH1 0x20 ADD PUSH1 0x40 MLOAD DUP1 SWAP2 SUB SWAP1 KECCAK256 DUP1 SLOAD SWAP1 POP PUSH8 0xFFFFFFFFFFFFFFFF DUP2 GT ISZERO PUSH2 0x772 JUMPI PUSH2 0x771 PUSH2 0x1535 JUMP JUMPDEST JUMPDEST PUSH1 0x40 MLOAD SWAP1 DUP1 DUP3 MSTORE DUP1 PUSH1 0x20 MUL PUSH1 0x20 ADD DUP3 ADD PUSH1 0x40 MSTORE DUP1 ISZERO PUSH2 0x7AB JUMPI DUP2 PUSH1 0x20 ADD JUMPDEST PUSH2 0x798 PUSH2 0x14A6 JUMP JUMPDEST DUP2 MSTORE PUSH1 0x20 ADD SWAP1 PUSH1 0x1 SWAP1 SUB SWAP1 DUP2 PUSH2 0x790 JUMPI SWAP1 POP JUMPDEST POP SWAP1 POP PUSH0 JUMPDEST PUSH1 0x1 DUP5 PUSH1 0x40 MLOAD PUSH2 0x7C0 SWAP2 SWAP1 PUSH2 0x215E JUMP JUMPDEST SWAP1 DUP2 MSTORE PUSH1 0x20 ADD PUSH1 0x40 MLOAD DUP1 SWAP2 SUB SWAP1 KECCAK256 DUP1 SLOAD SWAP1 POP DUP2 LT ISZERO PUSH2 0xAC4 JUMPI PUSH1 0x1 DUP5 PUSH1 0x40 MLOAD PUSH2 0x7E9 SWAP2 SWAP1 PUSH2 0x215E JUMP JUMPDEST SWAP1 DUP2 MSTORE PUSH1 0x20 ADD PUSH1 0x40 MLOAD DUP1 SWAP2 SUB SWAP1 KECCAK256 DUP2 DUP2 SLOAD DUP2 LT PUSH2 0x809 JUMPI PUSH2 0x808 PUSH2 0x243D JUMP JUMPDEST JUMPDEST SWAP1 PUSH0 MSTORE PUSH1 0x20 PUSH0 KECCAK256 SWAP1 PUSH1 0x6 MUL ADD PUSH1 0x40 MLOAD DUP1 PUSH1 0x80 ADD PUSH1 0x40 MSTORE SWAP1 DUP2 PUSH0 DUP3 ADD SLOAD DUP2 MSTORE PUSH1 0x20 ADD PUSH1 0x1 DUP3 ADD SLOAD DUP2 MSTORE PUSH1 0x20 ADD PUSH1 0x2 DUP3 ADD PUSH1 0x40 MLOAD DUP1 PUSH1 0x40 ADD PUSH1 0x40 MSTORE SWAP1 DUP2 PUSH0 DUP3 ADD DUP1 SLOAD PUSH2 0x852 SWAP1 PUSH2 0x21A1 JUMP JUMPDEST DUP1 PUSH1 0x1F ADD PUSH1 0x20 DUP1 SWAP2 DIV MUL PUSH1 0x20 ADD PUSH1 0x40 MLOAD SWAP1 DUP2 ADD PUSH1 0x40 MSTORE DUP1 SWAP3 SWAP2 SWAP1 DUP2 DUP2 MSTORE PUSH1 0x20 ADD DUP3 DUP1 SLOAD PUSH2 0x87E SWAP1 PUSH2 0x21A1 JUMP JUMPDEST DUP1 ISZERO PUSH2 0x8C9 JUMPI DUP1 PUSH1 0x1F LT PUSH2 0x8A0 JUMPI PUSH2 0x100 DUP1 DUP4 SLOAD DIV MUL DUP4 MSTORE SWAP2 PUSH1 0x20 ADD SWAP2 PUSH2 0x8C9 JUMP JUMPDEST DUP3 ADD SWAP2 SWAP1 PUSH0 MSTORE PUSH1 0x20 PUSH0 KECCAK256 SWAP1 JUMPDEST DUP2 SLOAD DUP2 MSTORE SWAP1 PUSH1 0x1 ADD SWAP1 PUSH1 0x20 ADD DUP1 DUP4 GT PUSH2 0x8AC JUMPI DUP3 SWAP1 SUB PUSH1 0x1F AND DUP3 ADD SWAP2 JUMPDEST POP POP POP POP POP DUP2 MSTORE PUSH1 0x20 ADD PUSH1 0x1 DUP3 ADD PUSH1 0x40 MLOAD DUP1 PUSH1 0x40 ADD PUSH1 0x40 MSTORE SWAP1 DUP2 PUSH0 DUP3 ADD DUP1 SLOAD PUSH2 0x8F1 SWAP1 PUSH2 0x21A1 JUMP JUMPDEST DUP1 PUSH1 0x1F ADD PUSH1 0x20 DUP1 SWAP2 DIV MUL PUSH1 0x20 ADD PUSH1 0x40 MLOAD SWAP1 DUP2 ADD PUSH1 0x40 MSTORE DUP1 SWAP3 SWAP2 SWAP1 DUP2 DUP2 MSTORE PUSH1 0x20 ADD DUP3 DUP1 SLOAD PUSH2 0x91D SWAP1 PUSH2 0x21A1 JUMP JUMPDEST DUP1 ISZERO PUSH2 0x968 JUMPI DUP1 PUSH1 0x1F LT PUSH2 0x93F JUMPI PUSH2 0x100 DUP1 DUP4 SLOAD DIV MUL DUP4 MSTORE SWAP2 PUSH1 0x20 ADD SWAP2 PUSH2 0x968 JUMP JUMPDEST DUP3 ADD SWAP2 SWAP1 PUSH0 MSTORE PUSH1 0x20 PUSH0 KECCAK256 SWAP1 JUMPDEST DUP2 SLOAD DUP2 MSTORE SWAP1 PUSH1 0x1 ADD SWAP1 PUSH1 0x20 ADD DUP1 DUP4 GT PUSH2 0x94B JUMPI DUP3 SWAP1 SUB PUSH1 0x1F AND DUP3 ADD SWAP2 JUMPDEST POP POP POP POP POP DUP2 MSTORE PUSH1 0x20 ADD PUSH1 0x1 DUP3 ADD DUP1 SLOAD PUSH2 0x981 SWAP1 PUSH2 0x21A1 JUMP JUMPDEST DUP1 PUSH1 0x1F ADD PUSH1 0x20 DUP1 SWAP2 DIV MUL PUSH1 0x20 ADD PUSH1 0x40 MLOAD SWAP1 DUP2 ADD PUSH1 0x40 MSTORE DUP1 SWAP3 SWAP2 SWAP1 DUP2 DUP2 MSTORE PUSH1 0x20 ADD DUP3 DUP1 SLOAD PUSH2 0x9AD SWAP1 PUSH2 0x21A1 JUMP JUMPDEST DUP1 ISZERO PUSH2 0x9F8 JUMPI DUP1 PUSH1 0x1F LT PUSH2 0x9CF JUMPI PUSH2 0x100 DUP1 DUP4 SLOAD DIV MUL DUP4 MSTORE SWAP2 PUSH1 0x20 ADD SWAP2 PUSH2 0x9F8 JUMP JUMPDEST DUP3 ADD SWAP2 SWAP1 PUSH0 MSTORE PUSH1 0x20 PUSH0 KECCAK256 SWAP1 JUMPDEST DUP2 SLOAD DUP2 MSTORE SWAP1 PUSH1 0x1 ADD SWAP1 PUSH1 0x20 ADD DUP1 DUP4 GT PUSH2 0x9DB JUMPI DUP3 SWAP1 SUB PUSH1 0x1F AND DUP3 ADD SWAP2 JUMPDEST POP POP POP POP POP DUP2 MSTORE POP POP DUP2 MSTORE POP POP DUP2 MSTORE PUSH1 0x20 ADD PUSH1 0x5 DUP3 ADD DUP1 SLOAD PUSH2 0xA19 SWAP1 PUSH2 0x21A1 JUMP JUMPDEST DUP1 PUSH1 0x1F ADD PUSH1 0x20 DUP1 SWAP2 DIV MUL PUSH1 0x20 ADD PUSH1 0x40 MLOAD SWAP1 DUP2 ADD PUSH1 0x40 MSTORE DUP1 SWAP3 SWAP2 SWAP1 DUP2 DUP2 MSTORE PUSH1 0x20 ADD DUP3 DUP1 SLOAD PUSH2 0xA45 SWAP1 PUSH2 0x21A1 JUMP JUMPDEST DUP1 ISZERO PUSH2 0xA90 JUMPI DUP1 PUSH1 0x1F LT PUSH2 0xA67 JUMPI PUSH2 0x100 DUP1 DUP4 SLOAD DIV MUL DUP4 MSTORE SWAP2 PUSH1 0x20 ADD SWAP2 PUSH2 0xA90 JUMP JUMPDEST DUP3 ADD SWAP2 SWAP1 PUSH0 MSTORE PUSH1 0x20 PUSH0 KECCAK256 SWAP1 JUMPDEST DUP2 SLOAD DUP2 MSTORE SWAP1 PUSH1 0x1 ADD SWAP1 PUSH1 0x20 ADD DUP1 DUP4 GT PUSH2 0xA73 JUMPI DUP3 SWAP1 SUB PUSH1 0x1F AND DUP3 ADD SWAP2 JUMPDEST POP POP POP POP POP DUP2 MSTORE POP POP DUP3 DUP3 DUP2 MLOAD DUP2 LT PUSH2 0xAAC JUMPI PUSH2 0xAAB PUSH2 0x243D JUMP JUMPDEST JUMPDEST PUSH1 0x20 MUL PUSH1 0x20 ADD ADD DUP2 SWAP1 MSTORE POP DUP1 DUP1 PUSH1 0x1 ADD SWAP2 POP POP PUSH2 0x7B0 JUMP JUMPDEST POP DUP1 SWAP2 POP POP PUSH2 0xB2A JUMP JUMPDEST PUSH0 DUP1 PUSH8 0xFFFFFFFFFFFFFFFF DUP2 GT ISZERO PUSH2 0xAE9 JUMPI PUSH2 0xAE8 PUSH2 0x1535 JUMP JUMPDEST JUMPDEST PUSH1 0x40 MLOAD SWAP1 DUP1 DUP3 MSTORE DUP1 PUSH1 0x20 MUL PUSH1 0x20 ADD DUP3 ADD PUSH1 0x40 MSTORE DUP1 ISZERO PUSH2 0xB22 JUMPI DUP2 PUSH1 0x20 ADD JUMPDEST PUSH2 0xB0F PUSH2 0x14A6 JUMP JUMPDEST DUP2 MSTORE PUSH1 0x20 ADD SWAP1 PUSH1 0x1 SWAP1 SUB SWAP1 DUP2 PUSH2 0xB07 JUMPI SWAP1 POP JUMPDEST POP SWAP1 POP DUP1 SWAP2 POP POP JUMPDEST SWAP2 SWAP1 POP JUMP JUMPDEST PUSH1 0x2 DUP2 PUSH1 0x40 MLOAD PUSH2 0xB3F SWAP2 SWAP1 PUSH2 0x215E JUMP JUMPDEST SWAP1 DUP2 MSTORE PUSH1 0x20 ADD PUSH1 0x40 MLOAD DUP1 SWAP2 SUB SWAP1 KECCAK256 DUP3 SWAP1 DUP1 PUSH1 0x1 DUP2 SLOAD ADD DUP1 DUP3 SSTORE DUP1 SWAP2 POP POP PUSH1 0x1 SWAP1 SUB SWAP1 PUSH0 MSTORE PUSH1 0x20 PUSH0 KECCAK256 ADD PUSH0 SWAP1 SWAP2 SWAP1 SWAP2 SWAP1 SWAP2 POP SWAP1 DUP2 PUSH2 0xB7C SWAP2 SWAP1 PUSH2 0x236E JUMP JUMPDEST POP PUSH1 0x1 PUSH1 0x4 DUP3 PUSH1 0x40 MLOAD PUSH2 0xB8F SWAP2 SWAP1 PUSH2 0x215E JUMP JUMPDEST SWAP1 DUP2 MSTORE PUSH1 0x20 ADD PUSH1 0x40 MLOAD DUP1 SWAP2 SUB SWAP1 KECCAK256 DUP2 SWAP1 SSTORE POP POP POP JUMP JUMPDEST PUSH0 DUP2 DUP1 MLOAD PUSH1 0x20 DUP2 ADD DUP3 ADD DUP1 MLOAD DUP5 DUP3 MSTORE PUSH1 0x20 DUP4 ADD PUSH1 0x20 DUP6 ADD KECCAK256 DUP2 DUP4 MSTORE DUP1 SWAP6 POP POP POP POP POP POP PUSH0 SWAP2 POP SWAP1 POP SLOAD DUP2 JUMP JUMPDEST PUSH1 0x3 DUP2 DUP1 MLOAD PUSH1 0x20 DUP2 ADD DUP3 ADD DUP1 MLOAD DUP5 DUP3 MSTORE PUSH1 0x20 DUP4 ADD PUSH1 0x20 DUP6 ADD KECCAK256 DUP2 DUP4 MSTORE DUP1 SWAP6 POP POP POP POP POP POP PUSH0 SWAP2 POP SWAP1 POP DUP1 PUSH0 ADD DUP1 SLOAD PUSH2 0xC08 SWAP1 PUSH2 0x21A1 JUMP JUMPDEST DUP1 PUSH1 0x1F ADD PUSH1 0x20 DUP1 SWAP2 DIV MUL PUSH1 0x20 ADD PUSH1 0x40 MLOAD SWAP1 DUP2 ADD PUSH1 0x40 MSTORE DUP1 SWAP3 SWAP2 SWAP1 DUP2 DUP2 MSTORE PUSH1 0x20 ADD DUP3 DUP1 SLOAD PUSH2 0xC34 SWAP1 PUSH2 0x21A1 JUMP JUMPDEST DUP1 ISZERO PUSH2 0xC7F JUMPI DUP1 PUSH1 0x1F LT PUSH2 0xC56 JUMPI PUSH2 0x100 DUP1 DUP4 SLOAD DIV MUL DUP4 MSTORE SWAP2 PUSH1 0x20 ADD SWAP2 PUSH2 0xC7F JUMP JUMPDEST DUP3 ADD SWAP2 SWAP1 PUSH0 MSTORE PUSH1 0x20 PUSH0 KECCAK256 SWAP1 JUMPDEST DUP2 SLOAD DUP2 MSTORE SWAP1 PUSH1 0x1 ADD SWAP1 PUSH1 0x20 ADD DUP1 DUP4 GT PUSH2 0xC62 JUMPI DUP3 SWAP1 SUB PUSH1 0x1F AND DUP3 ADD SWAP2 JUMPDEST POP POP POP POP POP SWAP1 DUP1 PUSH1 0x1 ADD DUP1 SLOAD PUSH2 0xC94 SWAP1 PUSH2 0x21A1 JUMP JUMPDEST DUP1 PUSH1 0x1F ADD PUSH1 0x20 DUP1 SWAP2 DIV MUL PUSH1 0x20 ADD PUSH1 0x40 MLOAD SWAP1 DUP2 ADD PUSH1 0x40 MSTORE DUP1 SWAP3 SWAP2 SWAP1 DUP2 DUP2 MSTORE PUSH1 0x20 ADD DUP3 DUP1 SLOAD PUSH2 0xCC0 SWAP1 PUSH2 0x21A1 JUMP JUMPDEST DUP1 ISZERO PUSH2 0xD0B JUMPI DUP1 PUSH1 0x1F LT PUSH2 0xCE2 JUMPI PUSH2 0x100 DUP1 DUP4 SLOAD DIV MUL DUP4 MSTORE SWAP2 PUSH1 0x20 ADD SWAP2 PUSH2 0xD0B JUMP JUMPDEST DUP3 ADD SWAP2 SWAP1 PUSH0 MSTORE PUSH1 0x20 PUSH0 KECCAK256 SWAP1 JUMPDEST DUP2 SLOAD DUP2 MSTORE SWAP1 PUSH1 0x1 ADD SWAP1 PUSH1 0x20 ADD DUP1 DUP4 GT PUSH2 0xCEE JUMPI DUP3 SWAP1 SUB PUSH1 0x1F AND DUP3 ADD SWAP2 JUMPDEST POP POP POP POP POP SWAP1 DUP1 PUSH1 0x2 ADD DUP1 SLOAD PUSH2 0xD20 SWAP1 PUSH2 0x21A1 JUMP JUMPDEST DUP1 PUSH1 0x1F ADD PUSH1 0x20 DUP1 SWAP2 DIV MUL PUSH1 0x20 ADD PUSH1 0x40 MLOAD SWAP1 DUP2 ADD PUSH1 0x40 MSTORE DUP1 SWAP3 SWAP2 SWAP1 DUP2 DUP2 MSTORE PUSH1 0x20 ADD DUP3 DUP1 SLOAD PUSH2 0xD4C SWAP1 PUSH2 0x21A1 JUMP JUMPDEST DUP1 ISZERO PUSH2 0xD97 JUMPI DUP1 PUSH1 0x1F LT PUSH2 0xD6E JUMPI PUSH2 0x100 DUP1 DUP4 SLOAD DIV MUL DUP4 MSTORE SWAP2 PUSH1 0x20 ADD SWAP2 PUSH2 0xD97 JUMP JUMPDEST DUP3 ADD SWAP2 SWAP1 PUSH0 MSTORE PUSH1 0x20 PUSH0 KECCAK256 SWAP1 JUMPDEST DUP2 SLOAD DUP2 MSTORE SWAP1 PUSH1 0x1 ADD SWAP1 PUSH1 0x20 ADD DUP1 DUP4 GT PUSH2 0xD7A JUMPI DUP3 SWAP1 SUB PUSH1 0x1F AND DUP3 ADD SWAP2 JUMPDEST POP POP POP POP POP SWAP1 DUP1 PUSH1 0x3 ADD DUP1 SLOAD PUSH2 0xDAC SWAP1 PUSH2 0x21A1 JUMP JUMPDEST DUP1 PUSH1 0x1F ADD PUSH1 0x20 DUP1 SWAP2 DIV MUL PUSH1 0x20 ADD PUSH1 0x40 MLOAD SWAP1 DUP2 ADD PUSH1 0x40 MSTORE DUP1 SWAP3 SWAP2 SWAP1 DUP2 DUP2 MSTORE PUSH1 0x20 ADD DUP3 DUP1 SLOAD PUSH2 0xDD8 SWAP1 PUSH2 0x21A1 JUMP JUMPDEST DUP1 ISZERO PUSH2 0xE23 JUMPI DUP1 PUSH1 0x1F LT PUSH2 0xDFA JUMPI PUSH2 0x100 DUP1 DUP4 SLOAD DIV MUL DUP4 MSTORE SWAP2 PUSH1 0x20 ADD SWAP2 PUSH2 0xE23 JUMP JUMPDEST DUP3 ADD SWAP2 SWAP1 PUSH0 MSTORE PUSH1 0x20 PUSH0 KECCAK256 SWAP1 JUMPDEST DUP2 SLOAD DUP2 MSTORE SWAP1 PUSH1 0x1 ADD SWAP1 PUSH1 0x20 ADD DUP1 DUP4 GT PUSH2 0xE06 JUMPI DUP3 SWAP1 SUB PUSH1 0x1F AND DUP3 ADD SWAP2 JUMPDEST POP POP POP POP POP SWAP1 DUP1 PUSH1 0x4 ADD DUP1 SLOAD PUSH2 0xE38 SWAP1 PUSH2 0x21A1 JUMP JUMPDEST DUP1 PUSH1 0x1F ADD PUSH1 0x20 DUP1 SWAP2 DIV MUL PUSH1 0x20 ADD PUSH1 0x40 MLOAD SWAP1 DUP2 ADD PUSH1 0x40 MSTORE DUP1 SWAP3 SWAP2 SWAP1 DUP2 DUP2 MSTORE PUSH1 0x20 ADD DUP3 DUP1 SLOAD PUSH2 0xE64 SWAP1 PUSH2 0x21A1 JUMP JUMPDEST DUP1 ISZERO PUSH2 0xEAF JUMPI DUP1 PUSH1 0x1F LT PUSH2 0xE86 JUMPI PUSH2 0x100 DUP1 DUP4 SLOAD DIV MUL DUP4 MSTORE SWAP2 PUSH1 0x20 ADD SWAP2 PUSH2 0xEAF JUMP JUMPDEST DUP3 ADD SWAP2 SWAP1 PUSH0 MSTORE PUSH1 0x20 PUSH0 KECCAK256 SWAP1 JUMPDEST DUP2 SLOAD DUP2 MSTORE SWAP1 PUSH1 0x1 ADD SWAP1 PUSH1 0x20 ADD DUP1 DUP4 GT PUSH2 0xE92 JUMPI DUP3 SWAP1 SUB PUSH1 0x1F AND DUP3 ADD SWAP2 JUMPDEST POP POP POP POP POP SWAP1 DUP1 PUSH1 0x5 ADD DUP1 SLOAD PUSH2 0xEC4 SWAP1 PUSH2 0x21A1 JUMP JUMPDEST DUP1 PUSH1 0x1F ADD PUSH1 0x20 DUP1 SWAP2 DIV MUL PUSH1 0x20 ADD PUSH1 0x40 MLOAD SWAP1 DUP2 ADD PUSH1 0x40 MSTORE DUP1 SWAP3 SWAP2 SWAP1 DUP2 DUP2 MSTORE PUSH1 0x20 ADD DUP3 DUP1 SLOAD PUSH2 0xEF0 SWAP1 PUSH2 0x21A1 JUMP JUMPDEST DUP1 ISZERO PUSH2 0xF3B JUMPI DUP1 PUSH1 0x1F LT PUSH2 0xF12 JUMPI PUSH2 0x100 DUP1 DUP4 SLOAD DIV MUL DUP4 MSTORE SWAP2 PUSH1 0x20 ADD SWAP2 PUSH2 0xF3B JUMP JUMPDEST DUP3 ADD SWAP2 SWAP1 PUSH0 MSTORE PUSH1 0x20 PUSH0 KECCAK256 SWAP1 JUMPDEST DUP2 SLOAD DUP2 MSTORE SWAP1 PUSH1 0x1 ADD SWAP1 PUSH1 0x20 ADD DUP1 DUP4 GT PUSH2 0xF1E JUMPI DUP3 SWAP1 SUB PUSH1 0x1F AND DUP3 ADD SWAP2 JUMPDEST POP POP POP POP POP SWAP1 POP DUP7 JUMP JUMPDEST PUSH0 DUP1 DUP3 PUSH1 0x40 MLOAD PUSH2 0xF55 SWAP2 SWAP1 PUSH2 0x215E JUMP JUMPDEST SWAP1 DUP2 MSTORE PUSH1 0x20 ADD PUSH1 0x40 MLOAD DUP1 SWAP2 SUB SWAP1 KECCAK256 SLOAD SWAP1 POP SWAP2 SWAP1 POP JUMP JUMPDEST DUP1 PUSH1 0x1 DUP5 PUSH1 0x40 MLOAD PUSH2 0xF7C SWAP2 SWAP1 PUSH2 0x215E JUMP JUMPDEST SWAP1 DUP2 MSTORE PUSH1 0x20 ADD PUSH1 0x40 MLOAD DUP1 SWAP2 SUB SWAP1 KECCAK256 DUP4 DUP2 SLOAD DUP2 LT PUSH2 0xF9C JUMPI PUSH2 0xF9B PUSH2 0x243D JUMP JUMPDEST JUMPDEST SWAP1 PUSH0 MSTORE PUSH1 0x20 PUSH0 KECCAK256 SWAP1 PUSH1 0x6 MUL ADD PUSH0 ADD DUP2 SWAP1 SSTORE POP POP POP POP JUMP JUMPDEST PUSH1 0x60 PUSH1 0x1 PUSH1 0x4 DUP4 PUSH1 0x40 MLOAD PUSH2 0xFC7 SWAP2 SWAP1 PUSH2 0x215E JUMP JUMPDEST SWAP1 DUP2 MSTORE PUSH1 0x20 ADD PUSH1 0x40 MLOAD DUP1 SWAP2 SUB SWAP1 KECCAK256 SLOAD SUB PUSH2 0x10CB JUMPI PUSH1 0x2 DUP3 PUSH1 0x40 MLOAD PUSH2 0xFEB SWAP2 SWAP1 PUSH2 0x215E JUMP JUMPDEST SWAP1 DUP2 MSTORE PUSH1 0x20 ADD PUSH1 0x40 MLOAD DUP1 SWAP2 SUB SWAP1 KECCAK256 DUP1 SLOAD DUP1 PUSH1 0x20 MUL PUSH1 0x20 ADD PUSH1 0x40 MLOAD SWAP1 DUP2 ADD PUSH1 0x40 MSTORE DUP1 SWAP3 SWAP2 SWAP1 DUP2 DUP2 MSTORE PUSH1 0x20 ADD PUSH0 SWAP1 JUMPDEST DUP3 DUP3 LT ISZERO PUSH2 0x10C0 JUMPI DUP4 DUP3 SWAP1 PUSH0 MSTORE PUSH1 0x20 PUSH0 KECCAK256 ADD DUP1 SLOAD PUSH2 0x1035 SWAP1 PUSH2 0x21A1 JUMP JUMPDEST DUP1 PUSH1 0x1F ADD PUSH1 0x20 DUP1 SWAP2 DIV MUL PUSH1 0x20 ADD PUSH1 0x40 MLOAD SWAP1 DUP2 ADD PUSH1 0x40 MSTORE DUP1 SWAP3 SWAP2 SWAP1 DUP2 DUP2 MSTORE PUSH1 0x20 ADD DUP3 DUP1 SLOAD PUSH2 0x1061 SWAP1 PUSH2 0x21A1 JUMP JUMPDEST DUP1 ISZERO PUSH2 0x10AC JUMPI DUP1 PUSH1 0x1F LT PUSH2 0x1083 JUMPI PUSH2 0x100 DUP1 DUP4 SLOAD DIV MUL DUP4 MSTORE SWAP2 PUSH1 0x20 ADD SWAP2 PUSH2 0x10AC JUMP JUMPDEST DUP3 ADD SWAP2 SWAP1 PUSH0 MSTORE PUSH1 0x20 PUSH0 KECCAK256 SWAP1 JUMPDEST DUP2 SLOAD DUP2 MSTORE SWAP1 PUSH1 0x1 ADD SWAP1 PUSH1 0x20 ADD DUP1 DUP4 GT PUSH2 0x108F JUMPI DUP3 SWAP1 SUB PUSH1 0x1F AND DUP3 ADD SWAP2 JUMPDEST POP POP POP POP POP DUP2 MSTORE PUSH1 0x20 ADD SWAP1 PUSH1 0x1 ADD SWAP1 PUSH2 0x1018 JUMP JUMPDEST POP POP POP POP SWAP1 POP PUSH2 0x10D2 JUMP JUMPDEST PUSH1 0x60 DUP1 SWAP2 POP POP JUMPDEST SWAP2 SWAP1 POP JUMP JUMPDEST PUSH1 0x6 DUP2 DUP2 SLOAD DUP2 LT PUSH2 0x10E6 JUMPI PUSH0 DUP1 REVERT JUMPDEST SWAP1 PUSH0 MSTORE PUSH1 0x20 PUSH0 KECCAK256 SWAP1 PUSH1 0x4 MUL ADD PUSH0 SWAP2 POP SWAP1 POP DUP1 PUSH0 ADD DUP1 SLOAD PUSH2 0x1105 SWAP1 PUSH2 0x21A1 JUMP JUMPDEST DUP1 PUSH1 0x1F ADD PUSH1 0x20 DUP1 SWAP2 DIV MUL PUSH1 0x20 ADD PUSH1 0x40 MLOAD SWAP1 DUP2 ADD PUSH1 0x40 MSTORE DUP1 SWAP3 SWAP2 SWAP1 DUP2 DUP2 MSTORE PUSH1 0x20 ADD DUP3 DUP1 SLOAD PUSH2 0x1131 SWAP1 PUSH2 0x21A1 JUMP JUMPDEST DUP1 ISZERO PUSH2 0x117C JUMPI DUP1 PUSH1 0x1F LT PUSH2 0x1153 JUMPI PUSH2 0x100 DUP1 DUP4 SLOAD DIV MUL DUP4 MSTORE SWAP2 PUSH1 0x20 ADD SWAP2 PUSH2 0x117C JUMP JUMPDEST DUP3 ADD SWAP2 SWAP1 PUSH0 MSTORE PUSH1 0x20 PUSH0 KECCAK256 SWAP1 JUMPDEST DUP2 SLOAD DUP2 MSTORE SWAP1 PUSH1 0x1 ADD SWAP1 PUSH1 0x20 ADD DUP1 DUP4 GT PUSH2 0x115F JUMPI DUP3 SWAP1 SUB PUSH1 0x1F AND DUP3 ADD SWAP2 JUMPDEST POP POP POP POP POP SWAP1 DUP1 PUSH1 0x1 ADD SLOAD SWAP1 DUP1 PUSH1 0x2 ADD DUP1 SLOAD PUSH2 0x1197 SWAP1 PUSH2 0x21A1 JUMP JUMPDEST DUP1 PUSH1 0x1F ADD PUSH1 0x20 DUP1 SWAP2 DIV MUL PUSH1 0x20 ADD PUSH1 0x40 MLOAD SWAP1 DUP2 ADD PUSH1 0x40 MSTORE DUP1 SWAP3 SWAP2 SWAP1 DUP2 DUP2 MSTORE PUSH1 0x20 ADD DUP3 DUP1 SLOAD PUSH2 0x11C3 SWAP1 PUSH2 0x21A1 JUMP JUMPDEST DUP1 ISZERO PUSH2 0x120E JUMPI DUP1 PUSH1 0x1F LT PUSH2 0x11E5 JUMPI PUSH2 0x100 DUP1 DUP4 SLOAD DIV MUL DUP4 MSTORE SWAP2 PUSH1 0x20 ADD SWAP2 PUSH2 0x120E JUMP JUMPDEST DUP3 ADD SWAP2 SWAP1 PUSH0 MSTORE PUSH1 0x20 PUSH0 KECCAK256 SWAP1 JUMPDEST DUP2 SLOAD DUP2 MSTORE SWAP1 PUSH1 0x1 ADD SWAP1 PUSH1 0x20 ADD DUP1 DUP4 GT PUSH2 0x11F1 JUMPI DUP3 SWAP1 SUB PUSH1 0x1F AND DUP3 ADD SWAP2 JUMPDEST POP POP POP POP POP SWAP1 DUP1 PUSH1 0x3 ADD DUP1 SLOAD PUSH2 0x1223 SWAP1 PUSH2 0x21A1 JUMP JUMPDEST DUP1 PUSH1 0x1F ADD PUSH1 0x20 DUP1 SWAP2 DIV MUL PUSH1 0x20 ADD PUSH1 0x40 MLOAD SWAP1 DUP2 ADD PUSH1 0x40 MSTORE DUP1 SWAP3 SWAP2 SWAP1 DUP2 DUP2 MSTORE PUSH1 0x20 ADD DUP3 DUP1 SLOAD PUSH2 0x124F SWAP1 PUSH2 0x21A1 JUMP JUMPDEST DUP1 ISZERO PUSH2 0x129A JUMPI DUP1 PUSH1 0x1F LT PUSH2 0x1271 JUMPI PUSH2 0x100 DUP1 DUP4 SLOAD DIV MUL DUP4 MSTORE SWAP2 PUSH1 0x20 ADD SWAP2 PUSH2 0x129A JUMP JUMPDEST DUP3 ADD SWAP2 SWAP1 PUSH0 MSTORE PUSH1 0x20 PUSH0 KECCAK256 SWAP1 JUMPDEST DUP2 SLOAD DUP2 MSTORE SWAP1 PUSH1 0x1 ADD SWAP1 PUSH1 0x20 ADD DUP1 DUP4 GT PUSH2 0x127D JUMPI DUP3 SWAP1 SUB PUSH1 0x1F AND DUP3 ADD SWAP2 JUMPDEST POP POP POP POP POP SWAP1 POP DUP5 JUMP JUMPDEST PUSH2 0x12AC PUSH2 0x14A6 JUMP JUMPDEST PUSH1 0x1 DUP2 PUSH0 ADD DUP2 DUP2 MSTORE POP POP PUSH2 0x12BE PUSH2 0x14D2 JUMP JUMPDEST DUP6 DUP2 PUSH0 ADD DUP2 SWAP1 MSTORE POP PUSH2 0x12CE PUSH2 0x14F2 JUMP JUMPDEST DUP5 DUP2 PUSH0 ADD DUP2 SWAP1 MSTORE POP DUP6 DUP2 PUSH1 0x20 ADD DUP2 SWAP1 MSTORE POP DUP1 DUP3 PUSH1 0x20 ADD DUP2 SWAP1 MSTORE POP DUP2 DUP4 PUSH1 0x40 ADD DUP2 SWAP1 MSTORE POP PUSH0 DUP4 PUSH1 0x20 ADD DUP2 DUP2 MSTORE POP POP PUSH0 PUSH1 0x5 DUP10 PUSH1 0x40 MLOAD PUSH2 0x130C SWAP2 SWAP1 PUSH2 0x215E JUMP JUMPDEST SWAP1 DUP2 MSTORE PUSH1 0x20 ADD PUSH1 0x40 MLOAD DUP1 SWAP2 SUB SWAP1 KECCAK256 SLOAD EQ PUSH2 0x134C JUMPI PUSH1 0x1 DUP9 PUSH1 0x40 MLOAD PUSH2 0x1330 SWAP2 SWAP1 PUSH2 0x215E JUMP JUMPDEST SWAP1 DUP2 MSTORE PUSH1 0x20 ADD PUSH1 0x40 MLOAD DUP1 SWAP2 SUB SWAP1 KECCAK256 DUP1 SLOAD SWAP1 POP DUP4 PUSH1 0x20 ADD DUP2 DUP2 MSTORE POP POP JUMPDEST DUP4 DUP4 PUSH1 0x60 ADD DUP2 SWAP1 MSTORE POP PUSH1 0x1 DUP9 PUSH1 0x40 MLOAD PUSH2 0x1365 SWAP2 SWAP1 PUSH2 0x215E JUMP JUMPDEST SWAP1 DUP2 MSTORE PUSH1 0x20 ADD PUSH1 0x40 MLOAD DUP1 SWAP2 SUB SWAP1 KECCAK256 DUP4 SWAP1 DUP1 PUSH1 0x1 DUP2 SLOAD ADD DUP1 DUP3 SSTORE DUP1 SWAP2 POP POP PUSH1 0x1 SWAP1 SUB SWAP1 PUSH0 MSTORE PUSH1 0x20 PUSH0 KECCAK256 SWAP1 PUSH1 0x6 MUL ADD PUSH0 SWAP1 SWAP2 SWAP1 SWAP2 SWAP1 SWAP2 POP PUSH0 DUP3 ADD MLOAD DUP2 PUSH0 ADD SSTORE PUSH1 0x20 DUP3 ADD MLOAD DUP2 PUSH1 0x1 ADD SSTORE PUSH1 0x40 DUP3 ADD MLOAD DUP2 PUSH1 0x2 ADD PUSH0 DUP3 ADD MLOAD DUP2 PUSH0 ADD SWAP1 DUP2 PUSH2 0x13C8 SWAP2 SWAP1 PUSH2 0x236E JUMP JUMPDEST POP PUSH1 0x20 DUP3 ADD MLOAD DUP2 PUSH1 0x1 ADD PUSH0 DUP3 ADD MLOAD DUP2 PUSH0 ADD SWAP1 DUP2 PUSH2 0x13E5 SWAP2 SWAP1 PUSH2 0x236E JUMP JUMPDEST POP PUSH1 0x20 DUP3 ADD MLOAD DUP2 PUSH1 0x1 ADD SWAP1 DUP2 PUSH2 0x13FB SWAP2 SWAP1 PUSH2 0x236E JUMP JUMPDEST POP POP POP POP POP PUSH1 0x60 DUP3 ADD MLOAD DUP2 PUSH1 0x5 ADD SWAP1 DUP2 PUSH2 0x1415 SWAP2 SWAP1 PUSH2 0x236E JUMP JUMPDEST POP POP POP PUSH1 0x1 PUSH1 0x5 DUP10 PUSH1 0x40 MLOAD PUSH2 0x142A SWAP2 SWAP1 PUSH2 0x215E JUMP JUMPDEST SWAP1 DUP2 MSTORE PUSH1 0x20 ADD PUSH1 0x40 MLOAD DUP1 SWAP2 SUB SWAP1 KECCAK256 DUP2 SWAP1 SSTORE POP POP POP POP POP POP POP POP POP JUMP JUMPDEST PUSH1 0x40 MLOAD DUP1 PUSH1 0xC0 ADD PUSH1 0x40 MSTORE DUP1 PUSH1 0x60 DUP2 MSTORE PUSH1 0x20 ADD PUSH1 0x60 DUP2 MSTORE PUSH1 0x20 ADD PUSH1 0x60 DUP2 MSTORE PUSH1 0x20 ADD PUSH1 0x60 DUP2 MSTORE PUSH1 0x20 ADD PUSH1 0x60 DUP2 MSTORE PUSH1 0x20 ADD PUSH1 0x60 DUP2 MSTORE POP SWAP1 JUMP JUMPDEST PUSH1 0x40 MLOAD DUP1 PUSH1 0x80 ADD PUSH1 0x40 MSTORE DUP1 PUSH1 0x60 DUP2 MSTORE PUSH1 0x20 ADD PUSH0 DUP1 NOT AND DUP2 MSTORE PUSH1 0x20 ADD PUSH1 0x60 DUP2 MSTORE PUSH1 0x20 ADD PUSH1 0x60 DUP2 MSTORE POP SWAP1 JUMP JUMPDEST PUSH1 0x40 MLOAD DUP1 PUSH1 0x80 ADD PUSH1 0x40 MSTORE DUP1 PUSH0 DUP2 MSTORE PUSH1 0x20 ADD PUSH0 DUP2 MSTORE PUSH1 0x20 ADD PUSH2 0x14C5 PUSH2 0x14D2 JUMP JUMPDEST DUP2 MSTORE PUSH1 0x20 ADD PUSH1 0x60 DUP2 MSTORE POP SWAP1 JUMP JUMPDEST PUSH1 0x40 MLOAD DUP1 PUSH1 0x40 ADD PUSH1 0x40 MSTORE DUP1 PUSH1 0x60 DUP2 MSTORE PUSH1 0x20 ADD PUSH2 0x14EC PUSH2 0x14F2 JUMP JUMPDEST DUP2 MSTORE POP SWAP1 JUMP JUMPDEST PUSH1 0x40 MLOAD DUP1 PUSH1 0x40 ADD PUSH1 0x40 MSTORE DUP1 PUSH1 0x60 DUP2 MSTORE PUSH1 0x20 ADD PUSH1 0x60 DUP2 MSTORE POP SWAP1 JUMP JUMPDEST PUSH0 PUSH1 0x40 MLOAD SWAP1 POP SWAP1 JUMP JUMPDEST PUSH0 DUP1 REVERT JUMPDEST PUSH0 DUP1 REVERT JUMPDEST PUSH0 DUP1 REVERT JUMPDEST PUSH0 DUP1 REVERT JUMPDEST PUSH0 PUSH1 0x1F NOT PUSH1 0x1F DUP4 ADD AND SWAP1 POP SWAP2 SWAP1 POP JUMP JUMPDEST PUSH32 0x4E487B7100000000000000000000000000000000000000000000000000000000 PUSH0 MSTORE PUSH1 0x41 PUSH1 0x4 MSTORE PUSH1 0x24 PUSH0 REVERT JUMPDEST PUSH2 0x156B DUP3 PUSH2 0x1525 JUMP JUMPDEST DUP2 ADD DUP2 DUP2 LT PUSH8 0xFFFFFFFFFFFFFFFF DUP3 GT OR ISZERO PUSH2 0x158A JUMPI PUSH2 0x1589 PUSH2 0x1535 JUMP JUMPDEST JUMPDEST DUP1 PUSH1 0x40 MSTORE POP POP POP JUMP JUMPDEST PUSH0 PUSH2 0x159C PUSH2 0x150C JUMP JUMPDEST SWAP1 POP PUSH2 0x15A8 DUP3 DUP3 PUSH2 0x1562 JUMP JUMPDEST SWAP2 SWAP1 POP JUMP JUMPDEST PUSH0 PUSH8 0xFFFFFFFFFFFFFFFF DUP3 GT ISZERO PUSH2 0x15C7 JUMPI PUSH2 0x15C6 PUSH2 0x1535 JUMP JUMPDEST JUMPDEST PUSH2 0x15D0 DUP3 PUSH2 0x1525 JUMP JUMPDEST SWAP1 POP PUSH1 0x20 DUP2 ADD SWAP1 POP SWAP2 SWAP1 POP JUMP JUMPDEST DUP3 DUP2 DUP4 CALLDATACOPY PUSH0 DUP4 DUP4 ADD MSTORE POP POP POP JUMP JUMPDEST PUSH0 PUSH2 0x15FD PUSH2 0x15F8 DUP5 PUSH2 0x15AD JUMP JUMPDEST PUSH2 0x1593 JUMP JUMPDEST SWAP1 POP DUP3 DUP2 MSTORE PUSH1 0x20 DUP2 ADD DUP5 DUP5 DUP5 ADD GT ISZERO PUSH2 0x1619 JUMPI PUSH2 0x1618 PUSH2 0x1521 JUMP JUMPDEST JUMPDEST PUSH2 0x1624 DUP5 DUP3 DUP6 PUSH2 0x15DD JUMP JUMPDEST POP SWAP4 SWAP3 POP POP POP JUMP JUMPDEST PUSH0 DUP3 PUSH1 0x1F DUP4 ADD SLT PUSH2 0x1640 JUMPI PUSH2 0x163F PUSH2 0x151D JUMP JUMPDEST JUMPDEST DUP2 CALLDATALOAD PUSH2 0x1650 DUP5 DUP3 PUSH1 0x20 DUP7 ADD PUSH2 0x15EB JUMP JUMPDEST SWAP2 POP POP SWAP3 SWAP2 POP POP JUMP JUMPDEST PUSH0 DUP1 PUSH0 DUP1 PUSH0 DUP1 PUSH1 0xC0 DUP8 DUP10 SUB SLT ISZERO PUSH2 0x1673 JUMPI PUSH2 0x1672 PUSH2 0x1515 JUMP JUMPDEST JUMPDEST PUSH0 DUP8 ADD CALLDATALOAD PUSH8 0xFFFFFFFFFFFFFFFF DUP2 GT ISZERO PUSH2 0x1690 JUMPI PUSH2 0x168F PUSH2 0x1519 JUMP JUMPDEST JUMPDEST PUSH2 0x169C DUP10 DUP3 DUP11 ADD PUSH2 0x162C JUMP JUMPDEST SWAP7 POP POP PUSH1 0x20 DUP8 ADD CALLDATALOAD PUSH8 0xFFFFFFFFFFFFFFFF DUP2 GT ISZERO PUSH2 0x16BD JUMPI PUSH2 0x16BC PUSH2 0x1519 JUMP JUMPDEST JUMPDEST PUSH2 0x16C9 DUP10 DUP3 DUP11 ADD PUSH2 0x162C JUMP JUMPDEST SWAP6 POP POP PUSH1 0x40 DUP8 ADD CALLDATALOAD PUSH8 0xFFFFFFFFFFFFFFFF DUP2 GT ISZERO PUSH2 0x16EA JUMPI PUSH2 0x16E9 PUSH2 0x1519 JUMP JUMPDEST JUMPDEST PUSH2 0x16F6 DUP10 DUP3 DUP11 ADD PUSH2 0x162C JUMP JUMPDEST SWAP5 POP POP PUSH1 0x60 DUP8 ADD CALLDATALOAD PUSH8 0xFFFFFFFFFFFFFFFF DUP2 GT ISZERO PUSH2 0x1717 JUMPI PUSH2 0x1716 PUSH2 0x1519 JUMP JUMPDEST JUMPDEST PUSH2 0x1723 DUP10 DUP3 DUP11 ADD PUSH2 0x162C JUMP JUMPDEST SWAP4 POP POP PUSH1 0x80 DUP8 ADD CALLDATALOAD PUSH8 0xFFFFFFFFFFFFFFFF DUP2 GT ISZERO PUSH2 0x1744 JUMPI PUSH2 0x1743 PUSH2 0x1519 JUMP JUMPDEST JUMPDEST PUSH2 0x1750 DUP10 DUP3 DUP11 ADD PUSH2 0x162C JUMP JUMPDEST SWAP3 POP POP PUSH1 0xA0 DUP8 ADD CALLDATALOAD PUSH8 0xFFFFFFFFFFFFFFFF DUP2 GT ISZERO PUSH2 0x1771 JUMPI PUSH2 0x1770 PUSH2 0x1519 JUMP JUMPDEST JUMPDEST PUSH2 0x177D DUP10 DUP3 DUP11 ADD PUSH2 0x162C JUMP JUMPDEST SWAP2 POP POP SWAP3 SWAP6 POP SWAP3 SWAP6 POP SWAP3 SWAP6 JUMP JUMPDEST PUSH0 DUP2 SWAP1 POP SWAP2 SWAP1 POP JUMP JUMPDEST PUSH2 0x179C DUP2 PUSH2 0x178A JUMP JUMPDEST DUP2 EQ PUSH2 0x17A6 JUMPI PUSH0 DUP1 REVERT JUMPDEST POP JUMP JUMPDEST PUSH0 DUP2 CALLDATALOAD SWAP1 POP PUSH2 0x17B7 DUP2 PUSH2 0x1793 JUMP JUMPDEST SWAP3 SWAP2 POP POP JUMP JUMPDEST PUSH0 DUP1 PUSH1 0x40 DUP4 DUP6 SUB SLT ISZERO PUSH2 0x17D3 JUMPI PUSH2 0x17D2 PUSH2 0x1515 JUMP JUMPDEST JUMPDEST PUSH0 DUP4 ADD CALLDATALOAD PUSH8 0xFFFFFFFFFFFFFFFF DUP2 GT ISZERO PUSH2 0x17F0 JUMPI PUSH2 0x17EF PUSH2 0x1519 JUMP JUMPDEST JUMPDEST PUSH2 0x17FC DUP6 DUP3 DUP7 ADD PUSH2 0x162C JUMP JUMPDEST SWAP3 POP POP PUSH1 0x20 PUSH2 0x180D DUP6 DUP3 DUP7 ADD PUSH2 0x17A9 JUMP JUMPDEST SWAP2 POP POP SWAP3 POP SWAP3 SWAP1 POP JUMP JUMPDEST PUSH0 DUP2 SWAP1 POP SWAP2 SWAP1 POP JUMP JUMPDEST PUSH2 0x1829 DUP2 PUSH2 0x1817 JUMP JUMPDEST DUP3 MSTORE POP POP JUMP JUMPDEST PUSH2 0x1838 DUP2 PUSH2 0x178A JUMP JUMPDEST DUP3 MSTORE POP POP JUMP JUMPDEST PUSH0 DUP2 MLOAD SWAP1 POP SWAP2 SWAP1 POP JUMP JUMPDEST PUSH0 DUP3 DUP3 MSTORE PUSH1 0x20 DUP3 ADD SWAP1 POP SWAP3 SWAP2 POP POP JUMP JUMPDEST PUSH0 JUMPDEST DUP4 DUP2 LT ISZERO PUSH2 0x1875 JUMPI DUP1 DUP3 ADD MLOAD DUP2 DUP5 ADD MSTORE PUSH1 0x20 DUP2 ADD SWAP1 POP PUSH2 0x185A JUMP JUMPDEST PUSH0 DUP5 DUP5 ADD MSTORE POP POP POP POP JUMP JUMPDEST PUSH0 PUSH2 0x188A DUP3 PUSH2 0x183E JUMP JUMPDEST PUSH2 0x1894 DUP2 DUP6 PUSH2 0x1848 JUMP JUMPDEST SWAP4 POP PUSH2 0x18A4 DUP2 DUP6 PUSH1 0x20 DUP7 ADD PUSH2 0x1858 JUMP JUMPDEST PUSH2 0x18AD DUP2 PUSH2 0x1525 JUMP JUMPDEST DUP5 ADD SWAP2 POP POP SWAP3 SWAP2 POP POP JUMP JUMPDEST PUSH0 PUSH1 0x40 DUP4 ADD PUSH0 DUP4 ADD MLOAD DUP5 DUP3 SUB PUSH0 DUP7 ADD MSTORE PUSH2 0x18D2 DUP3 DUP3 PUSH2 0x1880 JUMP JUMPDEST SWAP2 POP POP PUSH1 0x20 DUP4 ADD MLOAD DUP5 DUP3 SUB PUSH1 0x20 DUP7 ADD MSTORE PUSH2 0x18EC DUP3 DUP3 PUSH2 0x1880 JUMP JUMPDEST SWAP2 POP POP DUP1 SWAP2 POP POP SWAP3 SWAP2 POP POP JUMP JUMPDEST PUSH0 PUSH1 0x40 DUP4 ADD PUSH0 DUP4 ADD MLOAD DUP5 DUP3 SUB PUSH0 DUP7 ADD MSTORE PUSH2 0x1913 DUP3 DUP3 PUSH2 0x1880 JUMP JUMPDEST SWAP2 POP POP PUSH1 0x20 DUP4 ADD MLOAD DUP5 DUP3 SUB PUSH1 0x20 DUP7 ADD MSTORE PUSH2 0x192D DUP3 DUP3 PUSH2 0x18B8 JUMP JUMPDEST SWAP2 POP POP DUP1 SWAP2 POP POP SWAP3 SWAP2 POP POP JUMP JUMPDEST PUSH0 DUP3 DUP3 MSTORE PUSH1 0x20 DUP3 ADD SWAP1 POP SWAP3 SWAP2 POP POP JUMP JUMPDEST PUSH0 PUSH2 0x1954 DUP3 PUSH2 0x183E JUMP JUMPDEST PUSH2 0x195E DUP2 DUP6 PUSH2 0x193A JUMP JUMPDEST SWAP4 POP PUSH2 0x196E DUP2 DUP6 PUSH1 0x20 DUP7 ADD PUSH2 0x1858 JUMP JUMPDEST PUSH2 0x1977 DUP2 PUSH2 0x1525 JUMP JUMPDEST DUP5 ADD SWAP2 POP POP SWAP3 SWAP2 POP POP JUMP JUMPDEST PUSH0 PUSH1 0x80 DUP3 ADD SWAP1 POP PUSH2 0x1995 PUSH0 DUP4 ADD DUP8 PUSH2 0x1820 JUMP JUMPDEST PUSH2 0x19A2 PUSH1 0x20 DUP4 ADD DUP7 PUSH2 0x182F JUMP JUMPDEST DUP2 DUP2 SUB PUSH1 0x40 DUP4 ADD MSTORE PUSH2 0x19B4 DUP2 DUP6 PUSH2 0x18F9 JUMP JUMPDEST SWAP1 POP DUP2 DUP2 SUB PUSH1 0x60 DUP4 ADD MSTORE PUSH2 0x19C8 DUP2 DUP5 PUSH2 0x194A JUMP JUMPDEST SWAP1 POP SWAP6 SWAP5 POP POP POP POP POP JUMP JUMPDEST PUSH0 DUP1 REVERT JUMPDEST PUSH0 DUP1 REVERT JUMPDEST PUSH0 DUP2 SWAP1 POP SWAP2 SWAP1 POP JUMP JUMPDEST PUSH2 0x19ED DUP2 PUSH2 0x19DB JUMP JUMPDEST DUP2 EQ PUSH2 0x19F7 JUMPI PUSH0 DUP1 REVERT JUMPDEST POP JUMP JUMPDEST PUSH0 DUP2 CALLDATALOAD SWAP1 POP PUSH2 0x1A08 DUP2 PUSH2 0x19E4 JUMP JUMPDEST SWAP3 SWAP2 POP POP JUMP JUMPDEST PUSH0 PUSH1 0x80 DUP3 DUP5 SUB SLT ISZERO PUSH2 0x1A23 JUMPI PUSH2 0x1A22 PUSH2 0x19D3 JUMP JUMPDEST JUMPDEST PUSH2 0x1A2D PUSH1 0x80 PUSH2 0x1593 JUMP JUMPDEST SWAP1 POP PUSH0 DUP3 ADD CALLDATALOAD PUSH8 0xFFFFFFFFFFFFFFFF DUP2 GT ISZERO PUSH2 0x1A4C JUMPI PUSH2 0x1A4B PUSH2 0x19D7 JUMP JUMPDEST JUMPDEST PUSH2 0x1A58 DUP5 DUP3 DUP6 ADD PUSH2 0x162C JUMP JUMPDEST PUSH0 DUP4 ADD MSTORE POP PUSH1 0x20 PUSH2 0x1A6B DUP5 DUP3 DUP6 ADD PUSH2 0x19FA JUMP JUMPDEST PUSH1 0x20 DUP4 ADD MSTORE POP PUSH1 0x40 DUP3 ADD CALLDATALOAD PUSH8 0xFFFFFFFFFFFFFFFF DUP2 GT ISZERO PUSH2 0x1A8F JUMPI PUSH2 0x1A8E PUSH2 0x19D7 JUMP JUMPDEST JUMPDEST PUSH2 0x1A9B DUP5 DUP3 DUP6 ADD PUSH2 0x162C JUMP JUMPDEST PUSH1 0x40 DUP4 ADD MSTORE POP PUSH1 0x60 DUP3 ADD CALLDATALOAD PUSH8 0xFFFFFFFFFFFFFFFF DUP2 GT ISZERO PUSH2 0x1ABF JUMPI PUSH2 0x1ABE PUSH2 0x19D7 JUMP JUMPDEST JUMPDEST PUSH2 0x1ACB DUP5 DUP3 DUP6 ADD PUSH2 0x162C JUMP JUMPDEST PUSH1 0x60 DUP4 ADD MSTORE POP SWAP3 SWAP2 POP POP JUMP JUMPDEST PUSH0 PUSH1 0x20 DUP3 DUP5 SUB SLT ISZERO PUSH2 0x1AEC JUMPI PUSH2 0x1AEB PUSH2 0x1515 JUMP JUMPDEST JUMPDEST PUSH0 DUP3 ADD CALLDATALOAD PUSH8 0xFFFFFFFFFFFFFFFF DUP2 GT ISZERO PUSH2 0x1B09 JUMPI PUSH2 0x1B08 PUSH2 0x1519 JUMP JUMPDEST JUMPDEST PUSH2 0x1B15 DUP5 DUP3 DUP6 ADD PUSH2 0x1A0E JUMP JUMPDEST SWAP2 POP POP SWAP3 SWAP2 POP POP JUMP JUMPDEST PUSH0 PUSH1 0x20 DUP3 DUP5 SUB SLT ISZERO PUSH2 0x1B33 JUMPI PUSH2 0x1B32 PUSH2 0x1515 JUMP JUMPDEST JUMPDEST PUSH0 DUP3 ADD CALLDATALOAD PUSH8 0xFFFFFFFFFFFFFFFF DUP2 GT ISZERO PUSH2 0x1B50 JUMPI PUSH2 0x1B4F PUSH2 0x1519 JUMP JUMPDEST JUMPDEST PUSH2 0x1B5C DUP5 DUP3 DUP6 ADD PUSH2 0x162C JUMP JUMPDEST SWAP2 POP POP SWAP3 SWAP2 POP POP JUMP JUMPDEST PUSH0 DUP2 MLOAD SWAP1 POP SWAP2 SWAP1 POP JUMP JUMPDEST PUSH0 DUP3 DUP3 MSTORE PUSH1 0x20 DUP3 ADD SWAP1 POP SWAP3 SWAP2 POP POP JUMP JUMPDEST PUSH0 DUP2 SWAP1 POP PUSH1 0x20 DUP3 ADD SWAP1 POP SWAP2 SWAP1 POP JUMP JUMPDEST PUSH2 0x1B97 DUP2 PUSH2 0x1817 JUMP JUMPDEST DUP3 MSTORE POP POP JUMP JUMPDEST PUSH2 0x1BA6 DUP2 PUSH2 0x178A JUMP JUMPDEST DUP3 MSTORE POP POP JUMP JUMPDEST PUSH0 PUSH1 0x40 DUP4 ADD PUSH0 DUP4 ADD MLOAD DUP5 DUP3 SUB PUSH0 DUP7 ADD MSTORE PUSH2 0x1BC6 DUP3 DUP3 PUSH2 0x1880 JUMP JUMPDEST SWAP2 POP POP PUSH1 0x20 DUP4 ADD MLOAD DUP5 DUP3 SUB PUSH1 0x20 DUP7 ADD MSTORE PUSH2 0x1BE0 DUP3 DUP3 PUSH2 0x18B8 JUMP JUMPDEST SWAP2 POP POP DUP1 SWAP2 POP POP SWAP3 SWAP2 POP POP JUMP JUMPDEST PUSH0 PUSH1 0x80 DUP4 ADD PUSH0 DUP4 ADD MLOAD PUSH2 0x1C02 PUSH0 DUP7 ADD DUP3 PUSH2 0x1B8E JUMP JUMPDEST POP PUSH1 0x20 DUP4 ADD MLOAD PUSH2 0x1C15 PUSH1 0x20 DUP7 ADD DUP3 PUSH2 0x1B9D JUMP JUMPDEST POP PUSH1 0x40 DUP4 ADD MLOAD DUP5 DUP3 SUB PUSH1 0x40 DUP7 ADD MSTORE PUSH2 0x1C2D DUP3 DUP3 PUSH2 0x1BAC JUMP JUMPDEST SWAP2 POP POP PUSH1 0x60 DUP4 ADD MLOAD DUP5 DUP3 SUB PUSH1 0x60 DUP7 ADD MSTORE PUSH2 0x1C47 DUP3 DUP3 PUSH2 0x1880 JUMP JUMPDEST SWAP2 POP POP DUP1 SWAP2 POP POP SWAP3 SWAP2 POP POP JUMP JUMPDEST PUSH0 PUSH2 0x1C5F DUP4 DUP4 PUSH2 0x1BED JUMP JUMPDEST SWAP1 POP SWAP3 SWAP2 POP POP JUMP JUMPDEST PUSH0 PUSH1 0x20 DUP3 ADD SWAP1 POP SWAP2 SWAP1 POP JUMP JUMPDEST PUSH0 PUSH2 0x1C7D DUP3 PUSH2 0x1B65 JUMP JUMPDEST PUSH2 0x1C87 DUP2 DUP6 PUSH2 0x1B6F JUMP JUMPDEST SWAP4 POP DUP4 PUSH1 0x20 DUP3 MUL DUP6 ADD PUSH2 0x1C99 DUP6 PUSH2 0x1B7F JUMP JUMPDEST DUP1 PUSH0 JUMPDEST DUP6 DUP2 LT ISZERO PUSH2 0x1CD4 JUMPI DUP5 DUP5 SUB DUP10 MSTORE DUP2 MLOAD PUSH2 0x1CB5 DUP6 DUP3 PUSH2 0x1C54 JUMP JUMPDEST SWAP5 POP PUSH2 0x1CC0 DUP4 PUSH2 0x1C67 JUMP JUMPDEST SWAP3 POP PUSH1 0x20 DUP11 ADD SWAP10 POP POP PUSH1 0x1 DUP2 ADD SWAP1 POP PUSH2 0x1C9C JUMP JUMPDEST POP DUP3 SWAP8 POP DUP8 SWAP6 POP POP POP POP POP POP SWAP3 SWAP2 POP POP JUMP JUMPDEST PUSH0 PUSH1 0x20 DUP3 ADD SWAP1 POP DUP2 DUP2 SUB PUSH0 DUP4 ADD MSTORE PUSH2 0x1CFE DUP2 DUP5 PUSH2 0x1C73 JUMP JUMPDEST SWAP1 POP SWAP3 SWAP2 POP POP JUMP JUMPDEST PUSH0 DUP1 PUSH1 0x40 DUP4 DUP6 SUB SLT ISZERO PUSH2 0x1D1C JUMPI PUSH2 0x1D1B PUSH2 0x1515 JUMP JUMPDEST JUMPDEST PUSH0 DUP4 ADD CALLDATALOAD PUSH8 0xFFFFFFFFFFFFFFFF DUP2 GT ISZERO PUSH2 0x1D39 JUMPI PUSH2 0x1D38 PUSH2 0x1519 JUMP JUMPDEST JUMPDEST PUSH2 0x1D45 DUP6 DUP3 DUP7 ADD PUSH2 0x162C JUMP JUMPDEST SWAP3 POP POP PUSH1 0x20 DUP4 ADD CALLDATALOAD PUSH8 0xFFFFFFFFFFFFFFFF DUP2 GT ISZERO PUSH2 0x1D66 JUMPI PUSH2 0x1D65 PUSH2 0x1519 JUMP JUMPDEST JUMPDEST PUSH2 0x1D72 DUP6 DUP3 DUP7 ADD PUSH2 0x162C JUMP JUMPDEST SWAP2 POP POP SWAP3 POP SWAP3 SWAP1 POP JUMP JUMPDEST PUSH0 PUSH1 0x20 DUP3 ADD SWAP1 POP PUSH2 0x1D8F PUSH0 DUP4 ADD DUP5 PUSH2 0x1820 JUMP JUMPDEST SWAP3 SWAP2 POP POP JUMP JUMPDEST PUSH0 PUSH1 0xC0 DUP3 ADD SWAP1 POP DUP2 DUP2 SUB PUSH0 DUP4 ADD MSTORE PUSH2 0x1DAD DUP2 DUP10 PUSH2 0x194A JUMP JUMPDEST SWAP1 POP DUP2 DUP2 SUB PUSH1 0x20 DUP4 ADD MSTORE PUSH2 0x1DC1 DUP2 DUP9 PUSH2 0x194A JUMP JUMPDEST SWAP1 POP DUP2 DUP2 SUB PUSH1 0x40 DUP4 ADD MSTORE PUSH2 0x1DD5 DUP2 DUP8 PUSH2 0x194A JUMP JUMPDEST SWAP1 POP DUP2 DUP2 SUB PUSH1 0x60 DUP4 ADD MSTORE PUSH2 0x1DE9 DUP2 DUP7 PUSH2 0x194A JUMP JUMPDEST SWAP1 POP DUP2 DUP2 SUB PUSH1 0x80 DUP4 ADD MSTORE PUSH2 0x1DFD DUP2 DUP6 PUSH2 0x194A JUMP JUMPDEST SWAP1 POP DUP2 DUP2 SUB PUSH1 0xA0 DUP4 ADD MSTORE PUSH2 0x1E11 DUP2 DUP5 PUSH2 0x194A JUMP JUMPDEST SWAP1 POP SWAP8 SWAP7 POP POP POP POP POP POP POP JUMP JUMPDEST PUSH2 0x1E27 DUP2 PUSH2 0x1817 JUMP JUMPDEST DUP2 EQ PUSH2 0x1E31 JUMPI PUSH0 DUP1 REVERT JUMPDEST POP JUMP JUMPDEST PUSH0 DUP2 CALLDATALOAD SWAP1 POP PUSH2 0x1E42 DUP2 PUSH2 0x1E1E JUMP JUMPDEST SWAP3 SWAP2 POP POP JUMP JUMPDEST PUSH0 DUP1 PUSH0 PUSH1 0x60 DUP5 DUP7 SUB SLT ISZERO PUSH2 0x1E5F JUMPI PUSH2 0x1E5E PUSH2 0x1515 JUMP JUMPDEST JUMPDEST PUSH0 DUP5 ADD CALLDATALOAD PUSH8 0xFFFFFFFFFFFFFFFF DUP2 GT ISZERO PUSH2 0x1E7C JUMPI PUSH2 0x1E7B PUSH2 0x1519 JUMP JUMPDEST JUMPDEST PUSH2 0x1E88 DUP7 DUP3 DUP8 ADD PUSH2 0x162C JUMP JUMPDEST SWAP4 POP POP PUSH1 0x20 PUSH2 0x1E99 DUP7 DUP3 DUP8 ADD PUSH2 0x17A9 JUMP JUMPDEST SWAP3 POP POP PUSH1 0x40 PUSH2 0x1EAA DUP7 DUP3 DUP8 ADD PUSH2 0x1E34 JUMP JUMPDEST SWAP2 POP POP SWAP3 POP SWAP3 POP SWAP3 JUMP JUMPDEST PUSH0 DUP2 MLOAD SWAP1 POP SWAP2 SWAP1 POP JUMP JUMPDEST PUSH0 DUP3 DUP3 MSTORE PUSH1 0x20 DUP3 ADD SWAP1 POP SWAP3 SWAP2 POP POP JUMP JUMPDEST PUSH0 DUP2 SWAP1 POP PUSH1 0x20 DUP3 ADD SWAP1 POP SWAP2 SWAP1 POP JUMP JUMPDEST PUSH0 PUSH2 0x1EE8 DUP4 DUP4 PUSH2 0x1880 JUMP JUMPDEST SWAP1 POP SWAP3 SWAP2 POP POP JUMP JUMPDEST PUSH0 PUSH1 0x20 DUP3 ADD SWAP1 POP SWAP2 SWAP1 POP JUMP JUMPDEST PUSH0 PUSH2 0x1F06 DUP3 PUSH2 0x1EB4 JUMP JUMPDEST PUSH2 0x1F10 DUP2 DUP6 PUSH2 0x1EBE JUMP JUMPDEST SWAP4 POP DUP4 PUSH1 0x20 DUP3 MUL DUP6 ADD PUSH2 0x1F22 DUP6 PUSH2 0x1ECE JUMP JUMPDEST DUP1 PUSH0 JUMPDEST DUP6 DUP2 LT ISZERO PUSH2 0x1F5D JUMPI DUP5 DUP5 SUB DUP10 MSTORE DUP2 MLOAD PUSH2 0x1F3E DUP6 DUP3 PUSH2 0x1EDD JUMP JUMPDEST SWAP5 POP PUSH2 0x1F49 DUP4 PUSH2 0x1EF0 JUMP JUMPDEST SWAP3 POP PUSH1 0x20 DUP11 ADD SWAP10 POP POP PUSH1 0x1 DUP2 ADD SWAP1 POP PUSH2 0x1F25 JUMP JUMPDEST POP DUP3 SWAP8 POP DUP8 SWAP6 POP POP POP POP POP POP SWAP3 SWAP2 POP POP JUMP JUMPDEST PUSH0 PUSH1 0x20 DUP3 ADD SWAP1 POP DUP2 DUP2 SUB PUSH0 DUP4 ADD MSTORE PUSH2 0x1F87 DUP2 DUP5 PUSH2 0x1EFC JUMP JUMPDEST SWAP1 POP SWAP3 SWAP2 POP POP JUMP JUMPDEST PUSH0 PUSH1 0x20 DUP3 DUP5 SUB SLT ISZERO PUSH2 0x1FA4 JUMPI PUSH2 0x1FA3 PUSH2 0x1515 JUMP JUMPDEST JUMPDEST PUSH0 PUSH2 0x1FB1 DUP5 DUP3 DUP6 ADD PUSH2 0x17A9 JUMP JUMPDEST SWAP2 POP POP SWAP3 SWAP2 POP POP JUMP JUMPDEST PUSH2 0x1FC3 DUP2 PUSH2 0x19DB JUMP JUMPDEST DUP3 MSTORE POP POP JUMP JUMPDEST PUSH0 PUSH1 0x80 DUP3 ADD SWAP1 POP DUP2 DUP2 SUB PUSH0 DUP4 ADD MSTORE PUSH2 0x1FE1 DUP2 DUP8 PUSH2 0x194A JUMP JUMPDEST SWAP1 POP PUSH2 0x1FF0 PUSH1 0x20 DUP4 ADD DUP7 PUSH2 0x1FBA JUMP JUMPDEST DUP2 DUP2 SUB PUSH1 0x40 DUP4 ADD MSTORE PUSH2 0x2002 DUP2 DUP6 PUSH2 0x194A JUMP JUMPDEST SWAP1 POP DUP2 DUP2 SUB PUSH1 0x60 DUP4 ADD MSTORE PUSH2 0x2016 DUP2 DUP5 PUSH2 0x194A JUMP JUMPDEST SWAP1 POP SWAP6 SWAP5 POP POP POP POP POP JUMP JUMPDEST PUSH0 DUP1 PUSH0 DUP1 PUSH0 PUSH1 0xA0 DUP7 DUP9 SUB SLT ISZERO PUSH2 0x203A JUMPI PUSH2 0x2039 PUSH2 0x1515 JUMP JUMPDEST JUMPDEST PUSH0 DUP7 ADD CALLDATALOAD PUSH8 0xFFFFFFFFFFFFFFFF DUP2 GT ISZERO PUSH2 0x2057 JUMPI PUSH2 0x2056 PUSH2 0x1519 JUMP JUMPDEST JUMPDEST PUSH2 0x2063 DUP9 DUP3 DUP10 ADD PUSH2 0x162C JUMP JUMPDEST SWAP6 POP POP PUSH1 0x20 DUP7 ADD CALLDATALOAD PUSH8 0xFFFFFFFFFFFFFFFF DUP2 GT ISZERO PUSH2 0x2084 JUMPI PUSH2 0x2083 PUSH2 0x1519 JUMP JUMPDEST JUMPDEST PUSH2 0x2090 DUP9 DUP3 DUP10 ADD PUSH2 0x162C JUMP JUMPDEST SWAP5 POP POP PUSH1 0x40 DUP7 ADD CALLDATALOAD PUSH8 0xFFFFFFFFFFFFFFFF DUP2 GT ISZERO PUSH2 0x20B1 JUMPI PUSH2 0x20B0 PUSH2 0x1519 JUMP JUMPDEST JUMPDEST PUSH2 0x20BD DUP9 DUP3 DUP10 ADD PUSH2 0x162C JUMP JUMPDEST SWAP4 POP POP PUSH1 0x60 DUP7 ADD CALLDATALOAD PUSH8 0xFFFFFFFFFFFFFFFF DUP2 GT ISZERO PUSH2 0x20DE JUMPI PUSH2 0x20DD PUSH2 0x1519 JUMP JUMPDEST JUMPDEST PUSH2 0x20EA DUP9 DUP3 DUP10 ADD PUSH2 0x162C JUMP JUMPDEST SWAP3 POP POP PUSH1 0x80 DUP7 ADD CALLDATALOAD PUSH8 0xFFFFFFFFFFFFFFFF DUP2 GT ISZERO PUSH2 0x210B JUMPI PUSH2 0x210A PUSH2 0x1519 JUMP JUMPDEST JUMPDEST PUSH2 0x2117 DUP9 DUP3 DUP10 ADD PUSH2 0x162C JUMP JUMPDEST SWAP2 POP POP SWAP3 SWAP6 POP SWAP3 SWAP6 SWAP1 SWAP4 POP JUMP JUMPDEST PUSH0 DUP2 SWAP1 POP SWAP3 SWAP2 POP POP JUMP JUMPDEST PUSH0 PUSH2 0x2138 DUP3 PUSH2 0x183E JUMP JUMPDEST PUSH2 0x2142 DUP2 DUP6 PUSH2 0x2124 JUMP JUMPDEST SWAP4 POP PUSH2 0x2152 DUP2 DUP6 PUSH1 0x20 DUP7 ADD PUSH2 0x1858 JUMP JUMPDEST DUP1 DUP5 ADD SWAP2 POP POP SWAP3 SWAP2 POP POP JUMP JUMPDEST PUSH0 PUSH2 0x2169 DUP3 DUP5 PUSH2 0x212E JUMP JUMPDEST SWAP2 POP DUP2 SWAP1 POP SWAP3 SWAP2 POP POP JUMP JUMPDEST PUSH32 0x4E487B7100000000000000000000000000000000000000000000000000000000 PUSH0 MSTORE PUSH1 0x22 PUSH1 0x4 MSTORE PUSH1 0x24 PUSH0 REVERT JUMPDEST PUSH0 PUSH1 0x2 DUP3 DIV SWAP1 POP PUSH1 0x1 DUP3 AND DUP1 PUSH2 0x21B8 JUMPI PUSH1 0x7F DUP3 AND SWAP2 POP JUMPDEST PUSH1 0x20 DUP3 LT DUP2 SUB PUSH2 0x21CB JUMPI PUSH2 0x21CA PUSH2 0x2174 JUMP JUMPDEST JUMPDEST POP SWAP2 SWAP1 POP JUMP JUMPDEST PUSH0 DUP2 SWAP1 POP DUP2 PUSH0 MSTORE PUSH1 0x20 PUSH0 KECCAK256 SWAP1 POP SWAP2 SWAP1 POP JUMP JUMPDEST PUSH0 PUSH1 0x20 PUSH1 0x1F DUP4 ADD DIV SWAP1 POP SWAP2 SWAP1 POP JUMP JUMPDEST PUSH0 DUP3 DUP3 SHL SWAP1 POP SWAP3 SWAP2 POP POP JUMP JUMPDEST PUSH0 PUSH1 0x8 DUP4 MUL PUSH2 0x222D PUSH32 0xFFFFFFFFFFFFFFFFFFFFFFFFFFFFFFFFFFFFFFFFFFFFFFFFFFFFFFFFFFFFFFFF DUP3 PUSH2 0x21F2 JUMP JUMPDEST PUSH2 0x2237 DUP7 DUP4 PUSH2 0x21F2 JUMP JUMPDEST SWAP6 POP DUP1 NOT DUP5 AND SWAP4 POP DUP1 DUP7 AND DUP5 OR SWAP3 POP POP POP SWAP4 SWAP3 POP POP POP JUMP JUMPDEST PUSH0 DUP2 SWAP1 POP SWAP2 SWAP1 POP JUMP JUMPDEST PUSH0 PUSH2 0x2272 PUSH2 0x226D PUSH2 0x2268 DUP5 PUSH2 0x178A JUMP JUMPDEST PUSH2 0x224F JUMP JUMPDEST PUSH2 0x178A JUMP JUMPDEST SWAP1 POP SWAP2 SWAP1 POP JUMP JUMPDEST PUSH0 DUP2 SWAP1 POP SWAP2 SWAP1 POP JUMP JUMPDEST PUSH2 0x228B DUP4 PUSH2 0x2258 JUMP JUMPDEST PUSH2 0x229F PUSH2 0x2297 DUP3 PUSH2 0x2279 JUMP JUMPDEST DUP5 DUP5 SLOAD PUSH2 0x21FE JUMP JUMPDEST DUP3 SSTORE POP POP POP POP JUMP JUMPDEST PUSH0 SWAP1 JUMP JUMPDEST PUSH2 0x22B3 PUSH2 0x22A7 JUMP JUMPDEST PUSH2 0x22BE DUP2 DUP5 DUP5 PUSH2 0x2282 JUMP JUMPDEST POP POP POP JUMP JUMPDEST JUMPDEST DUP2 DUP2 LT ISZERO PUSH2 0x22E1 JUMPI PUSH2 0x22D6 PUSH0 DUP3 PUSH2 0x22AB JUMP JUMPDEST PUSH1 0x1 DUP2 ADD SWAP1 POP PUSH2 0x22C4 JUMP JUMPDEST POP POP JUMP JUMPDEST PUSH1 0x1F DUP3 GT ISZERO PUSH2 0x2326 JUMPI PUSH2 0x22F7 DUP2 PUSH2 0x21D1 JUMP JUMPDEST PUSH2 0x2300 DUP5 PUSH2 0x21E3 JUMP JUMPDEST DUP2 ADD PUSH1 0x20 DUP6 LT ISZERO PUSH2 0x230F JUMPI DUP2 SWAP1 POP JUMPDEST PUSH2 0x2323 PUSH2 0x231B DUP6 PUSH2 0x21E3 JUMP JUMPDEST DUP4 ADD DUP3 PUSH2 0x22C3 JUMP JUMPDEST POP POP JUMPDEST POP POP POP JUMP JUMPDEST PUSH0 DUP3 DUP3 SHR SWAP1 POP SWAP3 SWAP2 POP POP JUMP JUMPDEST PUSH0 PUSH2 0x2346 PUSH0 NOT DUP5 PUSH1 0x8 MUL PUSH2 0x232B JUMP JUMPDEST NOT DUP1 DUP4 AND SWAP2 POP POP SWAP3 SWAP2 POP POP JUMP JUMPDEST PUSH0 PUSH2 0x235E DUP4 DUP4 PUSH2 0x2337 JUMP JUMPDEST SWAP2 POP DUP3 PUSH1 0x2 MUL DUP3 OR SWAP1 POP SWAP3 SWAP2 POP POP JUMP JUMPDEST PUSH2 0x2377 DUP3 PUSH2 0x183E JUMP JUMPDEST PUSH8 0xFFFFFFFFFFFFFFFF DUP2 GT ISZERO PUSH2 0x2390 JUMPI PUSH2 0x238F PUSH2 0x1535 JUMP JUMPDEST JUMPDEST PUSH2 0x239A DUP3 SLOAD PUSH2 0x21A1 JUMP JUMPDEST PUSH2 0x23A5 DUP3 DUP3 DUP6 PUSH2 0x22E5 JUMP JUMPDEST PUSH0 PUSH1 0x20 SWAP1 POP PUSH1 0x1F DUP4 GT PUSH1 0x1 DUP2 EQ PUSH2 0x23D6 JUMPI PUSH0 DUP5 ISZERO PUSH2 0x23C4 JUMPI DUP3 DUP8 ADD MLOAD SWAP1 POP JUMPDEST PUSH2 0x23CE DUP6 DUP3 PUSH2 0x2353 JUMP JUMPDEST DUP7 SSTORE POP PUSH2 0x2435 JUMP JUMPDEST PUSH1 0x1F NOT DUP5 AND PUSH2 0x23E4 DUP7 PUSH2 0x21D1 JUMP JUMPDEST PUSH0 JUMPDEST DUP3 DUP2 LT ISZERO PUSH2 0x240B JUMPI DUP5 DUP10 ADD MLOAD DUP3 SSTORE PUSH1 0x1 DUP3 ADD SWAP2 POP PUSH1 0x20 DUP6 ADD SWAP5 POP PUSH1 0x20 DUP2 ADD SWAP1 POP PUSH2 0x23E6 JUMP JUMPDEST DUP7 DUP4 LT ISZERO PUSH2 0x2428 JUMPI DUP5 DUP10 ADD MLOAD PUSH2 0x2424 PUSH1 0x1F DUP10 AND DUP3 PUSH2 0x2337 JUMP JUMPDEST DUP4 SSTORE POP JUMPDEST PUSH1 0x1 PUSH1 0x2 DUP9 MUL ADD DUP9 SSTORE POP POP POP JUMPDEST POP POP POP POP POP POP JUMP JUMPDEST PUSH32 0x4E487B7100000000000000000000000000000000000000000000000000000000 PUSH0 MSTORE PUSH1 0x32 PUSH1 0x4 MSTORE PUSH1 0x24 PUSH0 REVERT INVALID LOG2 PUSH5 0x6970667358 0x22 SLT KECCAK256 CALLVALUE SWAP13 KECCAK256 0xE8 DUP12 DIV MSTORE8 0xE9 EXP CALLVALUE SWAP11 0xD3 0xA8 PUSH21 0xAEF1877EE858D0A8BC8D1EE42FCBF1FC180764736F PUSH13 0x63430008180033000000000000 "
    },
    "gasEstimates": {
      "creation": {
        "codeDepositCost": "1875200",
        "executionCost": "1974",
        "totalCost": "1877174"
      },
      "external": {
        "add_bank((string,bytes32,string,string))": "infinite",
        "add_data_for_verification(string,string,string,string,string)": "infinite",
        "add_image_bank_hash(string,string)": "infinite",
        "add_user(string,string,string,string,string,string)": "infinite",
        "bankList(uint256)": "infinite",
        "check_docandBank(string)": "infinite",
        "fn_mp_isUser(string)": "infinite",
        "mp_isUser(string)": "infinite",
        "mp_user_allData(string,uint256)": "infinite",
        "mp_usermap(string)": "infinite",
        "retrieved_all_data_user(string)": "infinite",
        "update_status_from_bank(string,uint256,int256)": "infinite"
      }
    },
    "methodIdentifiers": {
      "add_bank((string,bytes32,string,string))": "4f2a2d82",
      "add_data_for_verification(string,string,string,string,string)": "fb63a2ce",
      "add_image_bank_hash(string,string)": "5f4c43e6",
      "add_user(string,string,string,string,string,string)": "147fe85e",
      "bankList(uint256)": "cba49c21",
      "check_docandBank(string)": "b823d105",
      "fn_mp_isUser(string)": "9f132fb1",
      "mp_isUser(string)": "951f54b6",
      "mp_user_allData(string,uint256)": "2450b463",
      "mp_usermap(string)": "9e1de656",
      "retrieved_all_data_user(string)": "50a81035",
      "update_status_from_bank(string,uint256,int256)": "a94f0495"
    }
  },
  "abi": [
    {
      "inputs": [
        {
          "components": [
            {
              "internalType": "string",
              "name": "name",
              "type": "string"
            },
            {
              "internalType": "bytes32",
              "name": "id",
              "type": "bytes32"
            },
            {
              "internalType": "string",
              "name": "branch",
              "type": "string"
            },
            {
              "internalType": "string",
              "name": "nationality",
              "type": "string"
            }
          ],
          "internalType": "struct Kycsol.bank",
          "name": "t_bk",
          "type": "tuple"
        }
      ],
      "name": "add_bank",
      "outputs": [],
      "stateMutability": "nonpayable",
      "type": "function"
    },
    {
      "inputs": [
        {
          "internalType": "string",
          "name": "account",
          "type": "string"
        },
        {
          "internalType": "string",
          "name": "encrypt_hash",
          "type": "string"
        },
        {
          "internalType": "string",
          "name": "encrypt_ipfshash",
          "type": "string"
        },
        {
          "internalType": "string",
          "name": "doc_type",
          "type": "string"
        },
        {
          "internalType": "string",
          "name": "bank_name",
          "type": "string"
        }
      ],
      "name": "add_data_for_verification",
      "outputs": [],
      "stateMutability": "nonpayable",
      "type": "function"
    },
    {
      "inputs": [
        {
          "internalType": "string",
          "name": "hash",
          "type": "string"
        },
        {
          "internalType": "string",
          "name": "account",
          "type": "string"
        }
      ],
      "name": "add_image_bank_hash",
      "outputs": [],
      "stateMutability": "nonpayable",
      "type": "function"
    },
    {
      "inputs": [
        {
          "internalType": "string",
          "name": "t_fname",
          "type": "string"
        },
        {
          "internalType": "string",
          "name": "t_lname",
          "type": "string"
        },
        {
          "internalType": "string",
          "name": "t_dob",
          "type": "string"
        },
        {
          "internalType": "string",
          "name": "t_nation",
          "type": "string"
        },
        {
          "internalType": "string",
          "name": "t_email",
          "type": "string"
        },
        {
          "internalType": "string",
          "name": "t_account",
          "type": "string"
        }
      ],
      "name": "add_user",
      "outputs": [],
      "stateMutability": "nonpayable",
      "type": "function"
    },
    {
      "inputs": [
        {
          "internalType": "uint256",
          "name": "",
          "type": "uint256"
        }
      ],
      "name": "bankList",
      "outputs": [
        {
          "internalType": "string",
          "name": "name",
          "type": "string"
        },
        {
          "internalType": "bytes32",
          "name": "id",
          "type": "bytes32"
        },
        {
          "internalType": "string",
          "name": "branch",
          "type": "string"
        },
        {
          "internalType": "string",
          "name": "nationality",
          "type": "string"
        }
      ],
      "stateMutability": "view",
      "type": "function"
    },
    {
      "inputs": [
        {
          "internalType": "string",
          "name": "account",
          "type": "string"
        }
      ],
      "name": "check_docandBank",
      "outputs": [
        {
          "internalType": "string[]",
          "name": "",
          "type": "string[]"
        }
      ],
      "stateMutability": "view",
      "type": "function"
    },
    {
      "inputs": [
        {
          "internalType": "string",
          "name": "account",
          "type": "string"
        }
      ],
      "name": "fn_mp_isUser",
      "outputs": [
        {
          "internalType": "int256",
          "name": "",
          "type": "int256"
        }
      ],
      "stateMutability": "view",
      "type": "function"
    },
    {
      "inputs": [
        {
          "internalType": "string",
          "name": "",
          "type": "string"
        }
      ],
      "name": "mp_isUser",
      "outputs": [
        {
          "internalType": "int256",
          "name": "",
          "type": "int256"
        }
      ],
      "stateMutability": "view",
      "type": "function"
    },
    {
      "inputs": [
        {
          "internalType": "string",
          "name": "",
          "type": "string"
        },
        {
          "internalType": "uint256",
          "name": "",
          "type": "uint256"
        }
      ],
      "name": "mp_user_allData",
      "outputs": [
        {
          "internalType": "int256",
          "name": "isVerified",
          "type": "int256"
        },
        {
          "internalType": "uint256",
          "name": "idx",
          "type": "uint256"
        },
        {
          "components": [
            {
              "internalType": "string",
              "name": "encData",
              "type": "string"
            },
            {
              "components": [
                {
                  "internalType": "string",
                  "name": "doctype",
                  "type": "string"
                },
                {
                  "internalType": "string",
                  "name": "encIpfshash",
                  "type": "string"
                }
              ],
              "internalType": "struct Kycsol.doctype_ipfshash",
              "name": "doc",
              "type": "tuple"
            }
          ],
          "internalType": "struct Kycsol.data_docImages",
          "name": "dataAndDocs",
          "type": "tuple"
        },
        {
          "internalType": "string",
          "name": "bankname",
          "type": "string"
        }
      ],
      "stateMutability": "view",
      "type": "function"
    },
    {
      "inputs": [
        {
          "internalType": "string",
          "name": "",
          "type": "string"
        }
      ],
      "name": "mp_usermap",
      "outputs": [
        {
          "internalType": "string",
          "name": "fName",
          "type": "string"
        },
        {
          "internalType": "string",
          "name": "lName",
          "type": "string"
        },
        {
          "internalType": "string",
          "name": "dob",
          "type": "string"
        },
        {
          "internalType": "string",
          "name": "nationality",
          "type": "string"
        },
        {
          "internalType": "string",
          "name": "email_address",
          "type": "string"
        },
        {
          "internalType": "string",
          "name": "account",
          "type": "string"
        }
      ],
      "stateMutability": "view",
      "type": "function"
    },
    {
      "inputs": [
        {
          "internalType": "string",
          "name": "account",
          "type": "string"
        }
      ],
      "name": "retrieved_all_data_user",
      "outputs": [
        {
          "components": [
            {
              "internalType": "int256",
              "name": "isVerified",
              "type": "int256"
            },
            {
              "internalType": "uint256",
              "name": "idx",
              "type": "uint256"
            },
            {
              "components": [
                {
                  "internalType": "string",
                  "name": "encData",
                  "type": "string"
                },
                {
                  "components": [
                    {
                      "internalType": "string",
                      "name": "doctype",
                      "type": "string"
                    },
                    {
                      "internalType": "string",
                      "name": "encIpfshash",
                      "type": "string"
                    }
                  ],
                  "internalType": "struct Kycsol.doctype_ipfshash",
                  "name": "doc",
                  "type": "tuple"
                }
              ],
              "internalType": "struct Kycsol.data_docImages",
              "name": "dataAndDocs",
              "type": "tuple"
            },
            {
              "internalType": "string",
              "name": "bankname",
              "type": "string"
            }
          ],
          "internalType": "struct Kycsol.users_all_uploadedData[]",
          "name": "",
          "type": "tuple[]"
        }
      ],
      "stateMutability": "view",
      "type": "function"
    },
    {
      "inputs": [
        {
          "internalType": "string",
          "name": "account",
          "type": "string"
        },
        {
          "internalType": "uint256",
          "name": "t_idx",
          "type": "uint256"
        },
        {
          "internalType": "int256",
          "name": "t_isreviewd",
          "type": "int256"
        }
      ],
      "name": "update_status_from_bank",
      "outputs": [],
      "stateMutability": "nonpayable",
      "type": "function"
    }
  ]
}