{
  "contractName": "ImageStorage",
  "abi": [
    {
      "inputs": [
        {
          "internalType": "uint256",
          "name": "",
          "type": "uint256"
        }
      ],
      "name": "publicimagearray",
      "outputs": [
        {
          "internalType": "string",
          "name": "",
          "type": "string"
        }
      ],
      "stateMutability": "view",
      "type": "function",
      "constant": true
    },
    {
      "inputs": [
        {
          "internalType": "bytes32",
          "name": "",
          "type": "bytes32"
        }
      ],
      "name": "publicimages",
      "outputs": [
        {
          "internalType": "string",
          "name": "",
          "type": "string"
        }
      ],
      "stateMutability": "view",
      "type": "function",
      "constant": true
    },
    {
      "inputs": [
        {
          "internalType": "string",
          "name": "",
          "type": "string"
        }
      ],
      "name": "users",
      "outputs": [
        {
          "internalType": "int256",
          "name": "",
          "type": "int256"
        }
      ],
      "stateMutability": "view",
      "type": "function",
      "constant": true
    },
    {
      "inputs": [
        {
          "internalType": "string",
          "name": "ipfshash",
          "type": "string"
        }
      ],
      "name": "add_ipfs_to_array",
      "outputs": [],
      "stateMutability": "nonpayable",
      "type": "function"
    },
    {
      "inputs": [],
      "name": "get_array_len",
      "outputs": [
        {
          "internalType": "uint256",
          "name": "",
          "type": "uint256"
        }
      ],
      "stateMutability": "view",
      "type": "function",
      "constant": true
    },
    {
      "inputs": [],
      "name": "get_Array",
      "outputs": [
        {
          "internalType": "string[]",
          "name": "",
          "type": "string[]"
        }
      ],
      "stateMutability": "view",
      "type": "function",
      "constant": true
    },
    {
      "inputs": [
        {
          "internalType": "bytes32",
          "name": "hash",
          "type": "bytes32"
        },
        {
          "internalType": "string",
          "name": "ipfsHash",
          "type": "string"
        }
      ],
      "name": "uploadImage",
      "outputs": [],
      "stateMutability": "nonpayable",
      "type": "function"
    },
    {
      "inputs": [
        {
          "internalType": "bytes32",
          "name": "hash",
          "type": "bytes32"
        }
      ],
      "name": "getImagebyhash",
      "outputs": [
        {
          "internalType": "string",
          "name": "",
          "type": "string"
        }
      ],
      "stateMutability": "view",
      "type": "function",
      "constant": true
    },
    {
      "inputs": [
        {
          "internalType": "string",
          "name": "key",
          "type": "string"
        }
      ],
      "name": "add_user",
      "outputs": [],
      "stateMutability": "nonpayable",
      "type": "function"
    },
    {
      "inputs": [
        {
          "internalType": "string",
          "name": "key",
          "type": "string"
        }
      ],
      "name": "check_user",
      "outputs": [
        {
          "internalType": "int256",
          "name": "",
          "type": "int256"
        }
      ],
      "stateMutability": "view",
      "type": "function",
      "constant": true
    }
  ],
  "bytecode": "0x608060405234801561001057600080fd5b50610c3e806100206000396000f3fe608060405234801561001057600080fd5b506004361061009e5760003560e01c80638208f935116100665780638208f9351461015b57806387a358aa1461018b578063a7d2a443146101a7578063dba3d156146101d7578063e767e1f8146101f35761009e565b806325c13189146100a357806325cee2ca146100d357806346b9768a146100ef5780634c2abdf51461010d578063689e1c031461012b575b600080fd5b6100bd60048036038101906100b8919061079c565b610223565b6040516100ca9190610989565b60405180910390f35b6100ed60048036038101906100e89190610748565b61024b565b005b6100f7610280565b6040516101049190610967565b60405180910390f35b610115610359565b60405161012291906109c6565b60405180910390f35b6101456004803603810190610140919061079c565b610365565b6040516101529190610989565b60405180910390f35b610175600480360381019061017091906107dd565b610393565b60405161018291906109a4565b60405180910390f35b6101a560048036038101906101a0919061079c565b61043f565b005b6101c160048036038101906101bc919061071f565b610466565b6040516101ce91906109a4565b60405180910390f35b6101f160048036038101906101ec919061079c565b610506565b005b61020d6004803603810190610208919061071f565b610545565b60405161021a91906109a4565b60405180910390f35b60006002826040516102359190610950565b9081526020016040518091039020549050919050565b806001600084815260200190815260200160002090805190602001906102729291906105ea565b5061027c81610506565b5050565b60606000805480602002602001604051908101604052809291908181526020016000905b828210156103505783829060005260206000200180546102c390610b08565b80601f01602080910402602001604051908101604052809291908181526020018280546102ef90610b08565b801561033c5780601f106103115761010080835404028352916020019161033c565b820191906000526020600020905b81548152906001019060200180831161031f57829003601f168201915b5050505050815260200190600101906102a4565b50505050905090565b60008080549050905090565b6002818051602081018201805184825260208301602085012081835280955050505050506000915090505481565b600081815481106103a357600080fd5b9060005260206000200160009150905080546103be90610b08565b80601f01602080910402602001604051908101604052809291908181526020018280546103ea90610b08565b80156104375780601f1061040c57610100808354040283529160200191610437565b820191906000526020600020905b81548152906001019060200180831161041a57829003601f168201915b505050505081565b60016002826040516104519190610950565b90815260200160405180910390208190555050565b6001602052806000526040600020600091509050805461048590610b08565b80601f01602080910402602001604051908101604052809291908181526020018280546104b190610b08565b80156104fe5780601f106104d3576101008083540402835291602001916104fe565b820191906000526020600020905b8154815290600101906020018083116104e157829003601f168201915b505050505081565b6000819080600181540180825580915050600190039060005260206000200160009091909190915090805190602001906105419291906105ea565b5050565b606060016000838152602001908152602001600020805461056590610b08565b80601f016020809104026020016040519081016040528092919081815260200182805461059190610b08565b80156105de5780601f106105b3576101008083540402835291602001916105de565b820191906000526020600020905b8154815290600101906020018083116105c157829003601f168201915b50505050509050919050565b8280546105f690610b08565b90600052602060002090601f016020900481019282610618576000855561065f565b82601f1061063157805160ff191683800117855561065f565b8280016001018555821561065f579182015b8281111561065e578251825591602001919060010190610643565b5b50905061066c9190610670565b5090565b5b80821115610689576000816000905550600101610671565b5090565b60006106a061069b84610a06565b6109e1565b9050828152602081018484840111156106b857600080fd5b6106c3848285610ac6565b509392505050565b6000813590506106da81610bda565b92915050565b600082601f8301126106f157600080fd5b813561070184826020860161068d565b91505092915050565b60008135905061071981610bf1565b92915050565b60006020828403121561073157600080fd5b600061073f848285016106cb565b91505092915050565b6000806040838503121561075b57600080fd5b6000610769858286016106cb565b925050602083013567ffffffffffffffff81111561078657600080fd5b610792858286016106e0565b9150509250929050565b6000602082840312156107ae57600080fd5b600082013567ffffffffffffffff8111156107c857600080fd5b6107d4848285016106e0565b91505092915050565b6000602082840312156107ef57600080fd5b60006107fd8482850161070a565b91505092915050565b6000610812838361089e565b905092915050565b600061082582610a47565b61082f8185610a6a565b93508360208202850161084185610a37565b8060005b8581101561087d578484038952815161085e8582610806565b945061086983610a5d565b925060208a01995050600181019050610845565b50829750879550505050505092915050565b61089881610ab2565b82525050565b60006108a982610a52565b6108b38185610a7b565b93506108c3818560208601610ad5565b6108cc81610bc9565b840191505092915050565b60006108e282610a52565b6108ec8185610a8c565b93506108fc818560208601610ad5565b61090581610bc9565b840191505092915050565b600061091b82610a52565b6109258185610a9d565b9350610935818560208601610ad5565b80840191505092915050565b61094a81610abc565b82525050565b600061095c8284610910565b915081905092915050565b60006020820190508181036000830152610981818461081a565b905092915050565b600060208201905061099e600083018461088f565b92915050565b600060208201905081810360008301526109be81846108d7565b905092915050565b60006020820190506109db6000830184610941565b92915050565b60006109eb6109fc565b90506109f78282610b3a565b919050565b6000604051905090565b600067ffffffffffffffff821115610a2157610a20610b9a565b5b610a2a82610bc9565b9050602081019050919050565b6000819050602082019050919050565b600081519050919050565b600081519050919050565b6000602082019050919050565b600082825260208201905092915050565b600082825260208201905092915050565b600082825260208201905092915050565b600081905092915050565b6000819050919050565b6000819050919050565b6000819050919050565b82818337600083830152505050565b60005b83811015610af3578082015181840152602081019050610ad8565b83811115610b02576000848401525b50505050565b60006002820490506001821680610b2057607f821691505b60208210811415610b3457610b33610b6b565b5b50919050565b610b4382610bc9565b810181811067ffffffffffffffff82111715610b6257610b61610b9a565b5b80604052505050565b7f4e487b7100000000000000000000000000000000000000000000000000000000600052602260045260246000fd5b7f4e487b7100000000000000000000000000000000000000000000000000000000600052604160045260246000fd5b6000601f19601f8301169050919050565b610be381610aa8565b8114610bee57600080fd5b50565b610bfa81610abc565b8114610c0557600080fd5b5056fea26469706673582212205f3817df0658113663b078456b8a6b184e133881d3cfbc282451b250869cda9264736f6c63430008010033",
  "immutableReferences": {},
  "source": "// SPDX-License-Identifier: GPL-3.0\r\npragma solidity ^0.8.1;\r\n\r\ncontract ImageStorage {\r\n\r\n\r\n    //array to store public and private image ipfshash and encrypted image hash\r\n    string[] public publicimagearray;    \r\n\r\n    function add_ipfs_to_array(string memory ipfshash) public {\r\n        publicimagearray.push(ipfshash);\r\n    }\r\n\r\n    function get_array_len() public view returns (uint) {\r\n        return publicimagearray.length;\r\n    }\r\n    function get_Array() public view returns (string[] memory) {\r\n        return publicimagearray;\r\n    }\r\n\r\n\r\n    //------------------------------------------------------------    \r\n    //map and functions of private and public image\r\n    mapping(bytes32=> string) public publicimages;\r\n    \r\n    function uploadImage(bytes32 hash, string memory ipfsHash) public {   \r\n            publicimages[hash] = ipfsHash;\r\n            add_ipfs_to_array(ipfsHash);\r\n    }\r\n\r\n    function getImagebyhash(bytes32 hash) public view returns (string memory) {\r\n            return publicimages[hash];\r\n    }\r\n\r\n    //map to maintain and add the users\r\n    mapping (string => int) public users;\r\n    function add_user(string memory key) public{\r\n        users[key]=1;\r\n    }\r\n    function check_user(string memory key) public view returns(int){\r\n        return users[key];\r\n    }\r\n}\r\n\r\n",
  "sourcePath": "D:\\c++\\react_projects\\sayenaprt2\\phitapp\\my-app\\contracts\\ImageStorage.sol",
  "compiler": {
    "name": "solc",
    "version": "0.8.1+commit.df193b15.Emscripten.clang"
  },
  "schemaVersion": "3.4.16",
  "updatedAt": "2024-04-05T10:09:17.969Z",
  "networkType": "ethereum",
  "devdoc": {
    "kind": "dev",
    "methods": {},
    "version": 1
  },
  "userdoc": {
    "kind": "user",
    "methods": {},
    "version": 1
  }
}